:020000040100F9
:10000000F8970021F5BE0201BD280301E1BE0201FF
:10001000E1BE0201E1BE0201E1BE020100000000FA
:1000200000000000000000000000000059C00201B4
:10003000E1BE020100000000F1BF0201E1BE0201C9
:10004000D9C10201D9C10201D9C10201D9C102013C
:10005000D9C10201D9C10201D9C10201D9C102012C
:10006000B32F0301D9C10201D9C10201D9C10201D3
:10007000652F0301D9C10201D9C10201D9C1020111
:10008000D9C10201992F0301D9C10201D9C10201CD
:10009000D9C10201D9C10201D9C10201D9C10201EC
:1000A000D9C10201D9C10201D9C10201D9C10201DC
:1000B000D9C10201D9C10201084B1B78002B4FF0B6
:1000C0000003836018BF0222036008BF0122044BB3
:1000D0004360FF23C2710372704700BF280A0021EA
:1000E00028010800064A074B9B7802604FF4127201
:1000F000C37100238280082203728271704700BF9F
:10010000738D0201280A0021064A074BDB78026042
:100110004FF43272C371002382800822037282710D
:10012000704700BF7B8A0201280A0021064A074B5C
:100130001B7902604FF4B472C371FF2382800822DE
:1001400003728271704700BFB3850201280A002143
:10015000054A064B5B7902609022C371FF238280BF
:100160000822037282717047818E0201280A0021E1
:10017000054A064B9B790260A822C3710123828045
:100180000822037282717047059A0101280A002132
:10019000054A064BDB7E02607822C371022382800F
:1001A00008220372827170471DB00001280A0021E5
:1001B000064A074B1B7F02604FF40872C37100238D
:1001C0008280082203728271704700BF95A80001E7
:1001D000280A0021064A074B5B7F02604FF49072A9
:1001E000C371FF238280082203728271704700BFAF
:1001F000399A0201280A0021044B9A7F00230360E8
:100200008360034B4360C271704700BF280A00211E
:1002100000010800044BDA7F002303608360034B76
:100220004360C271704700BF280A00210001080026
:10023000064A9378D2781344002282600260044A0E
:100240004260C371FF230372704700BF280A002178
:10025000880008002DE9F341C41D0028064624F05B
:1002600007040CBF0020204600F02EFE071E04DA13
:100270006FF00B0002B0BDE8F0810EB9FC42F7D47C
:10028000364D6989288903316B7B03302A7B89B21B
:1002900080B223F0A0F90028EADB3C44A978EB788F
:1002A000002E04F10304194424F0030400FB01F1BF
:1002B0000CBF0020204600F0ADFF20440EB90028FE
:1002C000D6DB2B790446B3B1697D19446B791944A7
:1002D000FF29CDDC0330002E2A8AC9B220F00304A6
:1002E0000CBF0020204601F005F80028C0DB0444C4
:1002F0000EB9002CBCDB012000F0DCFDC8B1A97BED
:10030000B9B195F82C300734002B24F0070415BF41
:10031000402325234FF481722822002E14BF20464B
:10032000002006F0C1FE0028A2DB04440EB9002C18
:100330009EDBAB7CDBB12B7993B10734002EA97C1B
:1003400024F007040CBF0020204613F0BFFC002857
:100350008EDB04445EB9002C09DA89E7280A002103
:10036000012000F0A7FD10B1AB7B002BE5D1724B53
:100370001B6893B1A97981B10334002EEA7C24F083
:1003800003040CBF0020204698470028FFF670AFFA
:10039000044416B9002CFFF66BAF684B1B688BB199
:1003A000297D79B10334002E24F003040CBF002012
:1003B000204698470028FFF65BAF044416B9002C8E
:1003C000FFF656AF5E4B1F68B7B1697DA1B103342C
:1003D000002E2B7E24F0030408BF0020009318BFDA
:1003E0002046EB7DAA7DB8470028FFF641AF0444C4
:1003F00016B9002CFFF63CAF072000F05BFD98B16A
:10040000A97989B10334002EAA7E24F003040CBF1D
:100410000020204601F0E0F80028FFF629AF044450
:1004200016B9002CFFF624AFB6FA86F795F825002A
:100430007F09A0B10334EB7F297F24F0070419441E
:100440003B4644F00404C9B2224601F007F90028F3
:10045000FFF60EAF044416B9002CFFF609AF95F86D
:100460002610002959D00734002E2A8D24F00708C1
:100470000CBF0020404623F0C3F8041EFFF6F8AE80
:10048000444416B9002CFFF6F3AE1EB1298D404648
:100490001DF05CFD95F82010002940D095F824301F
:1004A000002B3CD06A8C0734002E24F0070802F1A0
:1004B00024020CBF0020404692B223F0A1F8041E93
:1004C000FFF6D6AE444416B9002CFFF6D1AE033485
:1004D000AB7F297F24F0070495F8240019443B469C
:1004E00044F00404C9B2224601F0AAF80028FFF63D
:1004F000BFAE044416B9002CFFF6BAAE3EB16A8C0A
:10050000404695F82010083292B21DF0A7FF2B6BE1
:100510005BB176B12C630020ACE68846B5E7002ECF
:10052000F5D0002211461046EFE7002EF3D1204609
:10053000A0E62834FBD59BE658000021600000218E
:100540005C0000211FB572B6194B5D6BE5B9BFF3B6
:100550004F8F1849184BCA6802F4E0621343CB600E
:10056000BFF34F8F00BFFDE7B4FBF6F4D3B2013207
:10057000002CF9D103F110026A4402F80C4C0A2253
:1005800033B901A8A847E2E7044600220A26EDE7AE
:10059000013BDBB203F110040DEB0406B0FBF2F4F7
:1005A00002FB1400303006F80C0C2046E8E700BFD0
:1005B000280A002100ED00E00400FA0513B5114CF3
:1005C0006846637B8DF80130237B8DF800306389AA
:1005D000ADF804302389ADF802300FF0A3FE18B156
:1005E000DB210320FFF7AEFF207E0FF007FF08B1ED
:1005F000DE21F6E7E07D0FF0FBFE08B1DF21F0E73A
:1006000002B010BD280A002138B5054600283ED0AA
:1006100021F076FB10B94FF0FF3038BD1EF09AFC88
:10062000B0F5FA7FF7D81C4C1C486563002500F034
:10063000BDFB2A222946A01C84F83850257084F876
:100640002C50256321F014FF1B2240F2011322815C
:10065000628140F2032263800123A281032223717D
:10066000A2731F22A376F72322824FF402726384BF
:10067000FB23628244F601122385E282EFF31084A9
:1006800072B601F025F82CB962B62046C5E76FF0C6
:100690001500C2E72846C0E7280A0021BD05000171
:1006A00038B51446002840F0B9805E4D95F83830D2
:1006B000032B00F0B080B1B112B96FF0150038BD56
:1006C0000139142900F2AA80DFE801F00B1C1F3465
:1006D0005E67853A6A6D7F404654598B8E9C9FA217
:1006E00094001378AB700020FFF7B4FD0028B7BF6B
:1006F000012302236FF00B0085F83830A8BF85F87E
:100700003830DCE71378EB70EDE71379002BD4D0A9
:100710005379002BD1D01288FB2ACED81A2A6388AD
:10072000CBD91B3BE02BC8D82368A288AB603E4BDB
:100730009A80D8E713786A799342BED32B71D2E7B7
:1007400013782A799342B8D86B71CCE713782A7959
:100750009342B2D86B75C6E71378002BADD05378AF
:10076000013BDBB2F82BA8D813889278EB822F4B91
:100770009A70B8E71078687618F0B6FFB3E7137888
:10078000002B9AD0AB76AEE7012000F093FB2378E4
:1007900008B1012B91D9AB73A5E713882B82A2E78F
:1007A0001378AB719FE7072000F084FB10B9237822
:1007B000012B82D9072000F07DFB18B12378002B94
:1007C0003FF47BAF2378EB748DE71378082B3FF66B
:1007D00074AF2B7587E71388FF2B3FF66EAFAB74B2
:1007E00081E71378EB767EE713780E2B3FF665AF43
:1007F0002B7778E723680E4A2B626368536023895E
:10080000138170E713786B776DE71378EB776AE7FE
:100810001378AB7767E74FF0FF3050E76FF02C00AD
:100820004DE700BF280A0021300A00213E0A0021BE
:10083000480A0021F8B50D46064630B329B311F039
:10084000070422D1124F97F83830012B02D16FF0F4
:100850000B00F8BD032B02D14FF0FF30F9E700F099
:10086000D5F90028F8D02846FFF7F4FC0028EEDB85
:100870001BF0BEFB3046396B11F020F8FFF79EFEEF
:100880000323204687F83830E3E76FF01500E0E7F0
:10089000280A002110B5074C94F83830032B03D1F7
:1008A00011F028F812F0ACF923F049F8002084F890
:1008B000380010BD280A002150B1074B03F1140283
:1008C00053F8041B934240F8041BF9D100207047F1
:1008D0006FF01500704700BF85510301074B10B53D
:1008E00093F838403CB910F0EDFE0320044900F0C5
:1008F000D9FA204610BD4FF0FF30FBE7280A00214F
:100900002D010001074B10B593F838403CB910F0A9
:10091000EDFE0220044900F0C5FA204610BD4FF05C
:10092000FF30FBE7280A00210901000138B50B4D13
:1009300095F8384074B910F0FBFE0949012000F029
:10094000B1FA2046074900F0ADFA0123204685F8A8
:100950002C3038BD4FF0FF30FBE700BF280A0021E4
:10096000B9000001E5000001054B10B593F83840CF
:100970001CB925F0A5FA204610BD4FF0FF30FBE76B
:10098000280A0021054B10B593F838401CB925F012
:100990009AFA204610BD4FF0FF30FBE7280A0021ED
:1009A000054B10B593F838401CB925F08FFA204656
:1009B00010BD4FF0FF30FBE7280A0021054B10B5B2
:1009C00093F838401CB925F083FA204610BD4FF04B
:1009D000FF30FBE7280A0021074B10B593F8384099
:1009E0003CB910F0C1FE0420044900F05BFA204637
:1009F00010BD4FF0FF30FBE7280A00215101000134
:100A00000A4B10B593F838406CB910F0C7FE0520BA
:100A1000074900F047FA074B074A20461A60074B80
:100A2000074A1A6010BD4FF0FF30FBE7280A00218B
:100A30007101000158000021A9A1010160000021FD
:100A400049150001054B10B593F838401CB924F046
:100A5000F3FA204610BD4FF0FF30FBE7280A0021D3
:100A6000054B10B593F838401CB924F0EDFA204638
:100A700010BD4FF0FF30FBE7280A0021094B10B5ED
:100A800093F838405CB910F0A1FE0749082000F047
:100A900009FA0920054900F005FA204610BD4FF07B
:100AA000FF30FBE7280A002191010001B10100019C
:100AB0000A4B10B593F838406CB910F0A5FE25F03C
:100AC000F6F90749082000F0EDF90920054900F082
:100AD000E9F9204610BD4FF0FF30FBE7280A00215E
:100AE00091010001B1010001094B10B593F83840A4
:100AF0005CB910F0A7FE07490A2000F0D3F90B20DB
:100B0000054900F0CFF9204610BD4FF0FF30FBE75C
:100B1000280A0021D5010001F9010001094B10B597
:100B200093F838405CB910F0ABFE07490A2000F09A
:100B3000B9F90C20054900F0B5F9204610BD4FF079
:100B4000FF30FBE7280A0021D50100011502000152
:100B5000074B10B593F838403CB910F0C5FC0F2096
:100B6000044900F09FF9204610BD4FF0FF30FBE72D
:100B7000280A002131020001074B10B593F83840D4
:100B80003CB910F0CBFC0F20044900F08BF9204653
:100B900010BD4FF0FF30FBE7280A002131020001B1
:100BA000074B10B593F838403CB910F0E7FC0F2024
:100BB000044900F077F9204610BD4FF0FF30FBE705
:100BC000280A002131020001074B10B593F8384084
:100BD0003CB910F0BDFC0F20044900F063F9204639
:100BE00010BD4FF0FF30FBE7280A00213102000161
:100BF00002680020014B1A60704700BF640A0021A0
:100C0000014B1B68184700BF640A0021024B18689B
:100C1000003818BF01207047640A0021F7B5044668
:100C20002D4E071D2C48376012F00AF802280546A1
:100C300006D12949204621F07CFD284603B0F0BDAD
:100C4000042842D13378092B0AD0262B1ED03146F6
:100C5000204621F0EAFDB0F5817F2DD3722112E00C
:100C600005213E2021F038FD0028F0D1F37801A9BC
:100C70003279684643EA0223ADF8003022F0C5F924
:100C80000028CFD053210820FFF75CFC1A213E201A
:100C900021F022FD0028DAD17368694601A8C3F368
:100CA0000F23ADF8043011238DF8063022F011FA2D
:100CB0000028B7D06521E6E70028B3D0A1782078D6
:100CC00021F00AFD0028B8D1ACE70828B5D10249C7
:100CD000204621F066FDB0E7680A0021074B4FF07F
:100CE000FF3141F6FF72C3E9001205490022C1E954
:100CF00000221F21C3E90212704700BF000000213B
:100D00006C0B00213F280CD801380B4BC0F342126A
:100D100000F01F0053F8223023FA00F000F0010029
:100D20007047FF2806D04038044BC0F3421200F051
:100D30001F00EFE701207047000000216C0B00212D
:100D4000074B0146006849681A4603C240F48C22EA
:100D50001A6041F0107242F4FF625A60704700BF9F
:100D6000000000210246024B0068516803C370472F
:100D70006C0B00210246024B0068516803C37047A8
:100D800008000021FD28084B16BF00F1FF303F206E
:100D9000C0B2420900F01F0003EB82039B6823FAF4
:100DA00000F000F00100704700000021014B1860C6
:100DB000704700BF740B002110B5FFF78FFF23F0C1
:100DC00045FA034B04461B6803B19847204610BD03
:100DD000740B002170B50C88C27CA6B2C4F30E045B
:100DE000931C058804F118021D44825AADB21A44BE
:100DF00043882A44013AB2FBF5F202FB054292B263
:100E00009342044B8BBF3340B34313439BB20B80DD
:100E100070BD00BF0080FFFF4A1E062A08B50346CA
:100E2000084604D84FF4D1711520FFF78BFB094A0F
:100E3000914202D940F2A311F6E711B903B119604A
:100E400008BD2BB11B680022C3E901211A1D1A60DD
:100E50000430F5E7FAFFFF7F10B5114B00EB4104BA
:100E60001A786389B3FBF2F303FB0223013A1A44B5
:100E7000B2F5706F027928BF00231A448378B2FB61
:100E8000F3F0194403FB1020091AB1FBF3F003FB44
:100E9000101313446FEA43436FEA5343638110BD59
:100EA000780B0021024B03EB80035960704700BFB1
:100EB000780B0021034B03EB80035868003818BF00
:100EC00001207047780B00212DE9F04F10F0070A40
:100ED00085B0054604D040F261111720FFF732FBC0
:100EE000544F04464FF0010B07F14006B146B0469F
:100EF00057F8043B8DF80BA03BB101A898479DF82B
:100F00000A30082B01D9E821E7E79DF80B1081BBD7
:100F100005B13160B94506F10406E9D12DB30023CE
:100F2000DFF814E10F221E468EF8003058F8220038
:100F3000013A60B190F804A08178BAF1FF0F64D152
:100F40004FF000078E4207713CBFCEB20123511C07
:100F5000ECD10BB18EF800600F2640F6FF6A58F80E
:100F60002670002F63D1013EF9D2601B05B0BDE8A9
:100F7000F08F9DF80AC04A1DBCF1020FE64604EB53
:100F8000420438BF4FF0020E53000EF1FF3004440C
:100F9000CEF100002040BDF808406444CCF1000CC4
:100FA000013C04EA0C04B4F5803F01D3F82194E736
:100FB00075B1C31A336099701C8083F803B09DF833
:100FC0000C201A71019A4FEA124C1A81A3F806C03C
:100FD00004FB01049EE758F82C90B9F1000F06D0ED
:100FE00099F804B0D34504BF99F802904F440CF12E
:100FF000FF3CBCF1000FEEDA3944FF29A2D90BB156
:101000008EF8006040F2271167E794460027F0E76A
:1010100007EB410309F101093846A3F80AA0FFF7DD
:101020001BFF5FFA89F1BB788B42F1D89BE74FF049
:101030000009F6E77C0B0021780B0021034B03EB42
:101040008003586C00B18078704700BF780B002196
:10105000F8B54FF6FF7305460380184B03EB810389
:10106000586CB8B186780379B3FBF6F206FB1233FD
:10107000DBB219460A1D00EB4202B2F90270548835
:10108000002F09DB0131B1FBF6F206FB1211C9B2E8
:101090008B42EFD10020F8BDFF29FBD0C4F30E0333
:1010A000C4782B8024B94FF4D5711720FFF74AFA82
:1010B0005380BDE8F84022F049BA00BF780B002108
:1010C0001D4B03EB810370B55C6C054644B3030410
:1010D00004D54FF4DC711720FFF734FA014620469F
:1010E00022F017FAFF28014604D02046BDE87040E0
:1010F00022F02CBAA078B5FBF0F300FB1353DBB25F
:1011000019460A1D04EB4206B6F90260002E09DBFF
:101110000131B1FBF0F200FB1211C9B28B42F0D1E8
:10112000002070BDFF29FBD08B4204EB42021CBFA4
:101130000023E3705580D8E7780B0021094B03EBBF
:101140008103014610B55C6C204622F0E2F9FF28CD
:10115000014604D02046BDE8104022F0F7B9002037
:1011600010BD00BF780B0021F8B5104B074603EB0C
:10117000810301465C6C204622F0CBF9FF2805462E
:1011800011D0E688238953EA064606D00146204658
:1011900022F0DCF901463846B04720462946FFF7E1
:1011A0005BFE0020F8BD0520FCE700BF780B0021A6
:1011B00038B50E4B0446827903EB8203586C08B9AC
:1011C000052038BD8278E1799142F9D24B1CE37158
:1011D00000EB41035D89B3F90A30002BF3DBA580F6
:1011E00022F0B4F920600020EBE700BF780B00216B
:1011F00008B5074B03EB81030146586C22F089F9CF
:10120000FF2804D140F21E211720FFF79BF908BDEB
:10121000780B002170B5044610F003000E4603D091
:101220004F211820FFF78EF9FFF7F6FD054624B190
:10123000034831460460FFF7EFFD284670BD00BF4C
:10124000FC0B00212DE9F14FDFF870B01E46074678
:101250000D46DBF8003090469DF828A09DF82C90B4
:101260001BB961211820FFF76DF95246092140464C
:1012700021F0A9FF4A4684B20921304621F0A3FF9C
:1012800081B2DBF80000214422F018F9386018B967
:10129000286001B0BDE8F08F04445346414609225E
:1012A0002C60386821F03BFF4B4609223146286804
:1012B00001B0BDE8F04F21F032BF00BFFC0B0021B0
:1012C00070B50E46044621F091FF0546304621F0E8
:1012D0008DFF044B2A1821461868BDE8704022F0A3
:1012E00011B900BFFC0B0021014B186822F0DAB8DD
:1012F000FC0B00211F2AF8B5044613460ED89200B5
:10130000033222F00303B3F5803F2DD2184DACB168
:10131000A00710D05F210920FFF714F9FF2B4FEA37
:10132000420204D9FF339A42A8BF1A46E8E77C2A52
:10133000B8BF7C22E4E729706C602B8122F00302A5
:1013400028230127120403FB01F06B680025120C0F
:10135000EEB28E4200D3F8BD14B126181F705E6045
:10136000104401352833F3E74FF0FF30F3E700BFB7
:10137000000C0021144A002138B553681478C8B213
:10138000844203D8AB210920FFF7DCF8184601316D
:1013900028330578002DF2D00021817001241289B4
:1013A0008161051D44709208C16100F1200144680B
:1013B00021F8022B994245F8044B1444F8D100233C
:1013C0004361037038BD00BF000C00210A4B1B892C
:1013D000B3F5FF7F4FEA930006D25A089B1A9BB2DF
:1013E000984238BF18467047B3F5EE6F01D8FF2218
:1013F000F4E740F27263F3E7000C00212DE9F843B3
:101400004B7880460C4602F0040602F0FB07D3B18D
:10141000DFB12E4BD4F804901D89B7BB0123AD0872
:101420004A46211D637004F1280004F12003A761DE
:10143000E76123F8025B984241F8042B2A44F8D173
:101440000023636101E0002FE3D0FF23A370002E8F
:1014500018BF0226A3191B7D032B03D1022F1CBF2B
:101460000136F6B2A31901221A7506F10C02002307
:1014700004EB860624F812307268A3704046C8F860
:101480000020A8F80430BDE8F88300211422617020
:10149000A01820F0EDFFB5F5FF7F0FD26B08ED1A15
:1014A000ADB209EB0502C4F804902584A260638400
:1014B000C4F80C90A5842261E384C6E7B5F5EE6F0D
:1014C0004FF0FF03EBD940F27265EAE7000C002110
:1014D000F7B5D2000B684000002502F07802CDF885
:1014E000013000F006008B880243ADF805300D4B4B
:1014F00042F001021E785F688DF80020EBB29E4238
:1015000001D800240AE0C5EBC5040722694601356D
:101510003C44204620F046FF0028EFD1204603B08F
:10152000F0BD00BF0C0C0021014B1878704700BFC4
:101530000C0C0021034B00211A785868C2EBC20240
:1015400020F096BF0C0C002110B50C4650B183075B
:1015500003D020214120FEF7F5FF044B586019709D
:10156000FFF7E8FFC4EBC40010BD00BF0C0C002166
:10157000F8B504460D461646FFF7AAFF034630BBF2
:10158000144A92F800C05768DAB2944501D807208F
:101590001CE0C3EBC3020133B85CB918024610F07B
:1015A0000100F1D1630022F07F02F60003F0060390
:1015B00006F0780643F00103334313430A4602F86A
:1015C000013B2B68C1F80130AB889380F8BD122035
:1015D000FCE700BF0C0C00212DE9F84305460C4642
:1015E000F7200521914621F0EEFD061E22DB1DB9F4
:1015F00006FB04F0BDE8F88315F0030703D098213B
:101600001920FEF79FFFDFF83480C8F81050A5B20C
:10161000A8F81460BBB29D42EAD9B8F814C04B4692
:10162000D8F810000522F72107FB0C00013721F044
:1016300076FDEFE74FF0FF30DCE700BF140C002130
:1016400007B5CDE900230B4603490246081D22F0E9
:1016500024F903B05DF804FB2C0C002113B5064CF3
:10166000CDE900230B46024604F1080104F10C0009
:1016700022F013F902B010BD2C0C0021024B0146E0
:10168000186822F0FCB800BF2C0C0021024BD3E9F3
:10169000002122F028B900BF2C0C0021034B1B288D
:1016A000D3E9022138BF1B2022F01DB92C0C0021E8
:1016B000024B0146D3E9002021F024BF2C0C00216D
:1016C000024B0146D3E9022021F01CBF2C0C002163
:1016D000144B012200214FF0FF309A60C3F8001232
:1016E000C3F80803C3F80015C3F804259A60C3F8CB
:1016F00008034FF48040C3F80015C3F8042503F530
:10170000805341F6F8720849C3F80825C1F88000F3
:10171000BFF34F8FBFF36F8FC1F88001C3F8082567
:10172000704700BF00E0004100E100E08C4632223B
:10173000064B00B50CF8032B8E4607CBCEF8030002
:10174000CCF80410CCF808205DF804FB480C00210C
:1017500010B5154C1BF01EFD1AF0F4FD0021636A54
:10176000608C9847237E9BB9104B628C93E80300F2
:1017700012F036FBE36A188812F05CFA636B94F897
:10178000301094F831009847002384F8383010BDA9
:1017900094E8070004F10C0383E80700044904F10E
:1017A000190025F032FFDFE73C0C0021640C00211A
:1017B0002D170001034B93F8383003B97047FFF73A
:1017C000C7BF00BF3C0C002140F26741062008B5AE
:1017D000FEF7B8FE08B5094B93F83820022A07D166
:1017E000DA7A42F00102DA72BDE80840FFF7B0BFD2
:1017F00040F22D212720FEF7A5FE00BF3C0C002162
:1018000038B5364D044695F828300BB1C2071FD4C1
:10181000012924D82B6C2046984700B395F8300056
:10182000E8B995F82820E2B18CB995F84430D8068B
:10183000C3F300142ED4EB6C23B30123AAB16A8F37
:10184000910713D5EB6BD878023818BF012038BD4B
:101850006B8F1B07DCD5EB6BDB78022BD8D101201B
:1018600038BD002CE1D1204638BD6A8F002AF6D160
:101870006A6D107803EA10102043C0F1010000F0F7
:10188000010038BDB5F85030B3FA83F35B09002A84
:10189000EBD0D4E7E96B0B7803F00303032B02D101
:1018A000CB78022B18D0A86C21F03FFD48B9EB6B28
:1018B0001B7803F00303032B06D195F82820044678
:1018C000B9E795F82820B6E710F030FA80F001006B
:1018D00095F82820C4B2AEE70024ACE73C0C002108
:1018E00070B5234C0646E56A636D95F88C2094F834
:1018F0005C00A3650AB1031DD8B2FF2895F86D10EE
:1019000004D11EB995F86C308B4203D01BF0F4F86B
:1019100095F88C2032B3206E1BF072FD94F82830BD
:10192000D5F8E820003B216E626718BF0123D5F887
:10193000EC20A06D84F87C30A2671AF0A1FC46B9B7
:1019400095F86D30033B012B94BF282000201BF03D
:101950002FFE95F86C1000201BF052FF022384F834
:10196000383070BDA06D1BF04BFD1AF0EBFCE6E7C4
:101970003C0C00212DE9F0413D4C82B094F8383008
:10198000E56A012B6CD15FFA83F895F87C30064646
:101990000F4673B1638F0021042043F0040385F8E0
:1019A0007C106387636A984794F828300BB185F8F8
:1019B0007E80E16B0B7803F00303032B37D04B7869
:1019C0008BB3022385F8823095F88C30F3B1E36A4B
:1019D00094F8282093F86D30003A03F1FF3318BFD4
:1019E0000122DBB284F87C20D5F8E820032B626763
:1019F000D5F8EC20A26794F85C2036D81D49002069
:101A0000CB5C009001201C491AF0D0FB012F05D1BE
:101A100026B931463046FFF7F3FEE0B102B0BDE82B
:101A2000F041FFF795BE012385F88230CCE795F8A9
:101A3000823063B9638F022043F002036387636AD5
:101A40009847E16B0B7803F00303032BB7D1032313
:101A500085F88230B8E702B0BDE8F041FFF740BF3B
:101A600040F29D412720FEF76DFDFFF7ADFE00BF60
:101A70003C0C0021EC480301A00C002170B5804C07
:101A8000002282B0E56A8DF8052095F88C2094F844
:101A90005C300AB10433DBB2FF2B95F86C1004D133
:101AA00018B995F86D308B4202D0FF201BF024F856
:101AB00095F88230032B00F2DE80DFE803F0021C91
:101AC000817194F8BA306F48ADF80630A5F85C30F3
:101AD00010F006F9002840F098800DF105020DF194
:101AE0000601A06C21F0AAFBE06320B195F8C73095
:101AF000002B00F0A280644B1846E36395F8832026
:101B00000378D20003F0F30302F00802134395F8C0
:101B10008420920002F00402134303F0EF0203F06A
:101B20000303032B027002D1C378022B11D0A06CE7
:101B300021F0FBFB48B9E06B027802F00303032BB2
:101B400007D010F0F3F8002870D1E06B027842F073
:101B50001002027095F88B3013B14378002B41D1FD
:101B60001BF04EFC1AF0EEFBE66B11F073F920B19E
:101B7000337803F00303032B5BD095F86D1001203D
:101B80001BF03EFEE26B012340491088927884F8F6
:101B9000BC30A4F8440084F838308A7002B070BDBC
:101BA000384810F09DF800285BD0E06BC3781B2B01
:101BB00014D1012105F110001AF0D0FFE06B0DE007
:101BC000B5F85C300DF105020DF10601A06CADF821
:101BD000063021F033FBE063002847D0012384F86E
:101BE000BB308BE7206E1BF00BFC94F82830206E86
:101BF000B3FA83F3D5E938125B09C4E91D12E16B2E
:101C000084F87C301AF03CFBAEE7638F4FF48070B1
:101C1000E16B43F48073626A638790470121E06B54
:101C200085F87D10C3781B2BD8D1C3E7E06B027811
:101C30008FE701201DF010FB9FE79DF8053043B1B1
:101C4000BDF8061025F088FC0123E06B84F8BB305A
:101C500054E7038001218370E06B25F002FAE06B0A
:101C6000EEE740F2D7212720FEF76CFC40F2CD21B1
:101C70002720FEF767FC40F2E5212720FEF762FCF3
:101C80003C0C0021780C0021C40C0021800C0021A8
:101C90002DE9F04FB84C87B0002294F83830E76A4D
:101CA000022B049240F01482638C0D46804613F0A0
:101CB000400106D1636A40209847638C43F040039B
:101CC0006384B8F1000F5CD097F88C30002B40F0A3
:101CD0005B81D4F858A09AF8013099B2A4F850105A
:101CE000002940F067810023E3649AF80060638C68
:101CF00097F88310C6F3800243F400739142638423
:101D000000F0F780D4F82C9099F88220FAB1022ADA
:101D100000F0B881002194F8283089F8821023B1AE
:101D200099F87E30002B40F0A38199F87D30002B8C
:101D300040F0808199F88330D4F858A0012B0CBF73
:101D40000023012389F88330638C9AF8006097F8A8
:101D50008410C6F3C00243F400634FF000099142BF
:101D6000638400F0CE80002611F074F830B39AF846
:101D7000003003F00303032B20D101201DF06CFA87
:101D80001CE097F88C20002A40F01C8143F480630B
:101D900094F8C6206384013297F86D3084F8C62029
:101DA000033B012B05D911F055F88146002800F0BE
:101DB000D680002601201DF04FFAB14697F88B30EF
:101DC00013B394F8283097F87620B3FA83F3002AF7
:101DD000D7F8E0204FEA531314BF0420002084F802
:101DE0007C3097F86C306267013BD7F8E420DBB2B7
:101DF000A267032B00F27181604A6149D35C002223
:101E00000092FB221AF0D2F945B994F8C6100120CD
:101E1000FFF7F6FC0546002800F0D88001251BF0EE
:101E20003FFD002E3BD1B9F1000F09D094F82830C6
:101E3000002B40F09680B4F809300133A4F8093043
:101E4000B8F1000F4AD0B4F805300022013384F80D
:101E5000C620A4F805304B4811F0DAFE049830B1E2
:101E600021F000FBE16A0022027210F033FF36B16C
:101E7000E16A002333720C22304610F0F9FE002D87
:101E800032D1638C1B0607D4636A294680209847A9
:101E9000638C43F08003638407B0BDE8F08FA16DCD
:101EA000E36C4E78002B00F01A81B4F850201846ED
:101EB000033220F073FB0DF10E0205A9A065D4F8E2
:101EC000C00021F0E5FA059821F0CCFA3146012254
:101ED0000646D4F8C00021F072FAA4E7B4F807303F
:101EE0000133A4F80730B6E7FFF732FC07B0BDE8CE
:101EF000F08F97F88410C6F3C002C14691427FF478
:101F000032AF06F00306D4F82CB0032E64D143F4AC
:101F100080530120514600266384638F8BF87C0038
:101F200043F001036387636A9847D4F858A09BF88D
:101F30008430013B18BF01238BF884309AF80130BC
:101F4000002B3FF411AFDBF8E8300133CBF8E83079
:101F5000DBF8EC3043F10003CBF8EC3004E7064645
:101F60002CE7B4F80530B4F80710B7F880200B431D
:101F700013433FF465AF5EE73C0C0021EC480301DE
:101F8000A00C0021640C00211AF004FAD4F858A027
:101F90009AF8013000287FF4A0AE002B65D09AF8A3
:101FA000002097F88410C2F3C00291427BD099B20E
:101FB000A4F85010D4F8C00021F0D8F9D4F858A0F3
:101FC000E06492E61AF026FA638CDFE6FFF756FD2E
:101FD000002E3FF428AF62E7002EA8D09AF80160E7
:101FE000002EA4D043F480539BF88C6063841AF0D5
:101FF000CFFC042894F8C43006D1002E14BF1B2255
:102000001F22934228BF1346D4F858A09AF8012003
:102010009A424ED8E66C002E3FF4A6AE94F8C53036
:10202000002B53D0636A0021202000269847D4F863
:1020300058A099E6002689F87D600FF061FE00281F
:1020400052D0638F3146082043F008036387636AE8
:102050009847D9F8E0300133C9F8E030D9F8E430D6
:1020600043F10003C9F8E43064E6A4F850303AE6DE
:10207000638F102089F87E1043F010036387636A32
:10208000984752E604A9A06C21F0FAF888B3D9F871
:10209000E0300133C9F8E030D9F8E43043F100030F
:1020A000C9F8E43036E6012384F83130FFF750FBFD
:1020B000F2E694F830300120002643F0100384F853
:1020C00030301DF0C9F8D4F858A04DE646462EE74A
:1020D00040F211512720FEF735FAFFF775FB40F269
:1020E0008E412720FEF72EFA40F21C412720FEF7F2
:1020F00029FA40F205412720FEF724FA0D4B0E4A3B
:1021000070B50E4C1A6094F838301BB1DE212720D0
:10211000FEF718FA03F0FF0206460D46227611F08C
:1021200057FE012104F1880024F09BFF66652566B7
:1021300070BD00BF64000021BC2500013C0C0021E3
:10214000074A10B592F8383013B10C24204610BD60
:1021500003F0FF04147611F03BFE204610BD00BFD3
:102160003C0C0021024B012283F8C520704700BFC0
:102170003C0C0021F0B585B0C24C02AD85E80300EF
:1021800094F838100A98002940F07781002B18BF86
:10219000002A00F07281B0FA80F14909002800F0AD
:1021A0006C81236404F12803606384F8C51084F80B
:1021B000301084F8C61084F8311084F8BC1084F80C
:1021C000BB1061876184626295E8030083E80300C5
:1021D000E56A1AF0F7FC1AF0B5F895F974001AF0F0
:1021E000F1FDA86A1BF0F0F8286A1AF0F1FD95F8E5
:1021F0009C001AF0F7FD95F87630002B40F0C58072
:1022000096201AF0AFFB94F82800002840F0C58013
:1022100095F86C209C4B03EB420399889B4B01F58E
:10222000FA71A3FB013189097D311AF057FF984BF0
:10223000984E18681BF0CEF8D5F8F000D5F8F410D9
:10224000E76AD5E90523A264C4F8C030D5F8F820C0
:10225000D5F8FC300FC6D5F80031D5F80421C4F804
:102260007D3097F88630C6F80D20A3F12602012AAA
:1022700040F29A8097F88720262A00F09580213B2B
:10228000012B00F2E280242A40F0D18094F828301B
:10229000002B00F0DD8097F8652097F8263197F83D
:1022A0006C6013405A0700F1CC8013F0010240F03B
:1022B000DD809B0700F1D28005F1340731463846B6
:1022C00025F012FA314624F08FFAB5F84030024674
:1022D00095F86D103846934228BF134684F8BA30FB
:1022E00025F0CFF995F86D1095F88C700429B5F8A4
:1022F000486008BF032124F077FA0FB9043080B298
:10230000B04228BF3046C6B284F8C46010F0A2FDC7
:1023100000287ED194F8280084F85C6000285AD107
:1023200095F88B30E3B195F86C30012295F8761072
:10233000013B84F87C200029D5F8E020DBB218BFEF
:1023400004206267032BD5F8E420A26700F2A48082
:102350004D4A0021D35CFB2200914E4919F026FF23
:102360000120FFF78BFB0023B5F8800095F89C2037
:10237000A360C4E900332B6F29886080218022711B
:102380000BB101221A6005B0F0BD4D201AF0EAFA37
:1023900094F8280000283FF43BAF95F86D209C216D
:1023A00001201AF09BFE42E794F82830002B37D129
:1023B00097F8FA3197F86C60002B3FF47DAFF21E6E
:1023C000012A3ED9DA1E012A3BD9012E3BD0012B2E
:1023D00039D0022670E795F88C30B3B1D5F8E830E3
:1023E00001206367D5F8EC3084F87C00A36795F88A
:1023F0006D30013BDBB2032B4ED823493246CB5C18
:1024000000210091234919F0D1FE0120FFF768FA5D
:10241000A9E710F025FDB04238BF3046C6B279E7D3
:1024200097F8923297F86C60002BC8D144E794F883
:1024300028306BB197F8263197F86C6059077FF513
:1024400034AF042638E7012636E7242A3FF41EAFCE
:1024500097F86C60032E08BF04262DE7F31EDBB24D
:10246000012BEED9012E18BF022625E7F31EDBB2A1
:10247000012B8CBF164604261EE740F26D11272063
:10248000FEF760F83C0C0021EC480301D34D6210CC
:1024900064000021A00C0021FFF796F908B5124B4B
:1024A00093F8382092B193F8282022B993F8383065
:1024B000012B14D108BD93F83820022A0AD1DB6A17
:1024C000D3F8D001BDE808401BF00AB8BDE80840C9
:1024D000FFF73EB940F20F212720FEF733F840F214
:1024E0000B212720FEF72EF83C0C0021FFF730B916
:1024F000014B1876704700BF3C0C0021014B93F84C
:10250000BC0070473C0C0021034B93F8BB0010B992
:10251000588CC0F3003070473C0C0021024B588CA3
:10252000C0F3C020704700BF3C0C0021014B93F862
:10253000C60070473C0C00212DE9F04182071E4F78
:1025400082B00446FE6A13D4E3070ED596F88410D1
:10255000D6E93A32013342F100020129C6E93A32A2
:102560000CBF0023012386F8843002B0BDE8F0815F
:10257000FB6CE3B1B7F850200D46B96D1846033235
:1025800091F8018020F00AF80DF1020201A9B86566
:10259000D7F8C00020F07CFF019820F063FF0122F3
:1025A00028604146D7F8C00020F009FFCCE740F290
:1025B0008E412720FDF7C6FF3C0C0021D5170001F6
:1025C000911C000175190001B51700012DE9F843B0
:1025D000002800F0E4800446072900F2D380DFE8F9
:1025E00001F0AB2525A7D1209ECD0146204625F040
:1025F000EAFFD4F8443100F1F6059D4240F2C7806D
:10260000E81A0321402838BF40201EF0E9FF0346A6
:10261000C4F8445120461D4626F0A1F8002D00F0D4
:102620009C802046BDE8F84326F09AB826F01AF8B8
:102630000023D4F8142105460E4684F8403184F86E
:102640004931BAB150EA010314D0CA00C30042EACA
:1026500050721B1A62EB0102D4F830115B18D4F8E7
:10266000341142EB0102D4E95401834272EB0103BD
:10267000C0F09380022304F5A07784F848313846EF
:102680001EF008FA002800F08E8094F8603103F004
:10269000FF01002B6AD16FF00043D4E956029A4241
:1026A00008BFB0F1FF3F12D02046D4E9549825F07E
:1026B0008AFFD4F85831F630D4F85C21B3EB090323
:1026C00062EB08021B1A62F10002002A4BDB39465A
:1026D00094F810011EF0CAFA00286ED0D4E9540113
:1026E000D4E94A32834272EB01071FD255EA06074A
:1026F0001CD0C01A334661EB02012A461FF074FD5C
:1027000005FB01F1A5FB005300FB0616D4E94A21A5
:102710003344551943EB0103C4E94A5306E090F8EA
:1027200010011EF091F9002384F83831BDE8F883D8
:10273000BDE8F8431BF0C8B813F0E4F9D4F844013D
:10274000DC381EF0BBFE98B3204625F0CCFF0028F5
:102750003FF44BAF204626F002F8D4E95423C4E9F5
:102760004C23BDE8F883204613F0D4F994F8100107
:102770001EF06AF9002384F83831AFE7FD213020DC
:10278000FDF7E0FE40F201113020FDF7DBFE2046B0
:10279000C4F8445125F0E3FFDFE701236BE7E021B4
:1027A0003020FDF7CFFE4FF4D3613020FDF7CAFE95
:1027B00040F25A213020FDF7C5FE40F29C613020E6
:1027C000FDF7C0FE2DE9F04F044689B000201F46FA
:1027D0000E46914694F86DA0049023F0BAFC94F84C
:1027E000B8310B2B00F24B83824A32F8135094F825
:1027F00087302844442B85B200F0878294F8868085
:102800000E2B18BFB8F1440F0CBF4FF001084FF06A
:10281000000889F001030293B9F1000F1AD0B4F84F
:10282000481204F50679B4F880B0711AA6EB0B0BC8
:1028300009B20FFA8BFB0029C0F25D82384694F88A
:10284000FC31032B00F23A83DFE813F0D201980148
:10285000DA00470094F8FC31032BE0D1B8F1000F07
:10286000DDD0B4F89032B342D9D1B4F8D4212046A7
:10287000B4F84A3241F64B5B1344C4F8F831D4F84B
:102880000432C4F8F031E369C4F8F43114F000FB09
:10289000D4F8982294F8A4325A458CBF4FF0000B1C
:1028A0004FF0010B002B40F0D582E3699A4204D02F
:1028B000208827F0EEFBD4F89832E361D4F8943204
:1028C00084F876B0E362B4F892322386D4F89C326E
:1028D0006362022384F8FC31A1E7E26902FB01F3A1
:1028E0000493002F00F01482B4F8D451002D40F06E
:1028F0000F8284F81352D4F804C20CFB113194F8FF
:102900008630262B049100F0168294F88730262B0F
:1029100000F0118200283CD0002D3AD1D4E98EE09D
:10292000D4E98C237245834180F0C38294F86D0012
:10293000C31E012B40F2838203911BF007FA4AF277
:10294000A13CD4F838322C4D8444A3F1830194F88F
:102950006D00A5FB0C3CA0F1030ED4E98C23BEF165
:10296000010FA1EB020303991944A1EB9C1140F262
:102970009A8203911BF0EAF900F2E730D4F804C21E
:102980000399A5FB0030B4F8D451800901441039F3
:102990000491AB44AAF103030CFB0BFBDBB20BF17C
:1029A000300B012B4FEA4B0B40F20E825046124D7A
:1029B0001BF0CCF94AF2A1330344A5FB03239D0984
:1029C00050461BF0BBF90BF173031D4494F87630AD
:1029D00028440A4D2860002B00F0088104AB2A46E9
:1029E0005946E06923F044FF049B84F81302E2692E
:1029F00028686EE0FC480301D34D6210040D0021ED
:102A0000E36A2946D4F8F40118441CF067FA294611
:102A1000C4F80002E0691CF061FA94F87630002BEB
:102A200040F0878194F86DA0C4F804025046AAF1E2
:102A3000030A1BF08BF94DF64171BAF1010FC44D39
:102A400001442046A5FB013194BF2823002303EB5A
:102A50009111803124F0ACFEB4F8D43113B9002FB9
:102A600040F0B481D4F8F431E26A94F86DB01344C4
:102A7000D4F80002ABF103011B1AC9B20493D4F8D5
:102A8000F0310129D4F8F821B4F830A002FB030595
:102A90000AF1730A05F130054FEA450540F242811B
:102AA00058461BF053F94AF2A1330344A848A0FB4F
:102AB00003239B095846039355441BF03FF9039B9E
:102AC000E2691D44A34B28441860012384F8FC31BB
:102AD000049BD4F80452D4F84012551B6FF4B3721F
:102AE0001544854228BF0546C918D4F8443204F17C
:102AF0003400C4F8D05143F10003C4F82812C4F8DC
:102B00002C32002384F8183224F0B9FD2844A4F8AC
:102B10004862C4F81C02D4E98A23C4E9902313F064
:102B200039FC20B1D4F81C321E33C4F81C32B4F87E
:102B3000C01100238E1B84F8203236B29E4202DD83
:102B4000022384F82032B8F1000F40F00581002FF5
:102B500040F0058194F8FC31002B40F0208149467B
:102B600094F814021EF082F8002800F08D81029B78
:102B700084F81032002009B0BDE8F08FD4F80402C8
:102B8000E269D4F8F851B4F8D431121AB4F830A08C
:102B90009B4402FB01F1D4F80032EA430AF1730AC4
:102BA000049130339344D4F8F02102FB053594F8B6
:102BB0006D20D31E00FB0B55012B4FEA450540F25B
:102BC000B380104603921BF0C1F84AF2A1330344CC
:102BD0005F48A0FB0323039A4FEA931B554410461A
:102BE0001BF0ACF85B4B5D4428441860049B80E00C
:102BF00094F86D1094F8CE0123F01DFE8246E06A31
:102C0000294650441CF06AF92946C4F80002E069DC
:102C10001CF064F994F87630002B40F0888005A908
:102C2000C4F8040206A8DFF828B11AF041FE059B9B
:102C30000093DDE90623D4E990011EF02BFF94F800
:102C40006D300546184603931BF080F8039B4DF644
:102C50004171033B01442046012BABFB013194BF82
:102C60002823002303EB9111803124F0A1FDD4F837
:102C70004C32E26A94F86D00049303921BF066F8FC
:102C80004AF2A133039AC318D4F80002ABFB033114
:102C9000049B933B13441B1A5344B4F830A05B1BB2
:102CA00000F130050AF1950AA3EB91136D0004932E
:102CB00094F86D30DA1E012A31D9184603931BF0BF
:102CC00045F800F52340A130ABFB003B039B4FEAE6
:102CD0009B1B184655441BF031F8049BD4F84C223A
:102CE0005D441C499A1A2844B2F5A07F0860C0F0E0
:102CF000D080E269EDE600235946012084F81332C2
:102D0000D4E98C23C4E9902399E54FF0010880E5CC
:102D100094F81352002D54D00E490868D9E64FF0AC
:102D2000650BD6E76523C5E64FF0650B56E7023025
:102D300075E7023076E6B4F89032F31A1B043FF5DB
:102D4000E9AD94F89332002B18BF9A46E2E500BF34
:102D5000D34D6210040D0021002F3FF400AFB4F8F2
:102D6000E821CAB1B4F8EA0194F8EC1100FB0111B2
:102D700001308A427FF7F3AE002B3FF4F0AE002320
:102D8000A4F8EA0184F8203210F070F800F007008F
:102D9000013084F8EC01E2E6A4F8EA21DFE6D4F899
:102DA00004324846E169C91A23F0EDFC83B2002BD6
:102DB0003FF4D5AE129A0120002A3FF4DCAE138016
:102DC000D9E6B4F8D45196E56525F9E5E26AD4F878
:102DD000F43194F86D0003EB020A1AF0B7FF4AF2DF
:102DE000A13394F86DB0AAF1930A0344ABF1030147
:102DF000D4F80002A5FB0323C9B2D4F83822AAEB09
:102E0000000A9B09012992440393D4E98C23AAEB7D
:102E1000020A1DD958461AF099FF94F86DB000F2D5
:102E2000E732D4F80002ABF10301A5FB0235C9B2C9
:102E3000AD09039BAAEB03022A4404921FE6AEF1FC
:102E4000E80E3C20D4E98C23AEEB020E71449DE5E4
:102E50003C25EEE7208827F019F9F8B1B4F8A02254
:102E6000CB46B4F890326286B4F8A2224381013B8B
:102E700082810382A0F80E90D4F898321DE540F2CA
:102E8000F2310620FDF75EFB40F287513020FDF75E
:102E900059FB40F2D2413020FDF754FB40F2327131
:102EA0003020FDF74FFBB4F8D4513C20D4F804C2D5
:102EB0006CE540F226513020FDF744FB40F23E51D4
:102EC0003020FDF73FFB00BFF0B585B0002800F0D3
:102ED0000C810446072900F2FC80DFE811F07B003A
:102EE000080008006C00FA0099007100F6001CF060
:102EF000B1F9D4E98C23801A61EB0301012871F147
:102F00000003C0F204816FF00102002382428B4172
:102F1000C0F2F480E3690BB1B0FBF3F394F88710CF
:102F2000442905D094F88620433A012A00F284808F
:102F3000B4F80E12013189B2A4F80E12B4F8BA0036
:102F400002ADB4F88030B4F84A220344B4F8B800B3
:102F5000714E0132013BA4F84A221B1A9FB233681A
:102F600053B101390022204689B29847B4F80E12B5
:102F7000014489B2A4F80E127B1A18047ED40023EF
:102F8000204600951A46FFF71DFC08B3012840F0C3
:102F9000B080B4F80E12B4F8C031CA1A120400F1AD
:102FA0008A80BDF80830194489B23368A4F80E123B
:102FB000002BD6D1E0E705B0BDE8F0401AF084BCA4
:102FC00090F8FC31042B40F09E80002380F8FC3107
:102FD00005B0F0BD90F8103213B3B0F80E32B0F86F
:102FE0008020934279D09A1AA0F88030A0F8C621A8
:102FF0002046D4E98A23C4E98C2313F069FE94F8AF
:10300000CB31002BE4D005B0BDE8F04025F05ABD2F
:1030100001201CF021F905B0BDE8F040FFF766BAC9
:10302000B0F80C32B0F88010B0F80C225B1AA0F89F
:103030008020A0F8C631DBE70E293FF479AFB4F861
:103040008010B4F80E220B449BB2D11A0D0454BF69
:10305000531C01339BB2A4F80E3294F81132B4F829
:103060000E12002B7FF46AAFB4F8C4318B427FF4A8
:1030700065AF013189B2A4F80E125FE794F88A2097
:10308000012328460394002A8DF808300CBF3E2304
:10309000082384F8A93010F04FFB204625F014FDDA
:1030A000002394F8140284F8FC311DF0CDFC202399
:1030B00084F814328CE7BDF80820114489B27A1ADA
:1030C00012F4004F18BF19466FE7D4213020FDF7E6
:1030D00039FAD8213020FDF735FAB0F8C421D31AD7
:1030E000A0F88020A0F8C63182E7A8213020FDF7A3
:1030F00029FA40F26A613020FDF724FA40F21361A8
:103100003020FDF71FFACE213020FDF71BFA40F2E8
:1031100012613020FDF716FA680000212DE9F04316
:10312000D0F81431002683B0054680F818610F46A8
:10313000D0E9548983F8CE2180F838610121D0F894
:1031400014010FF03DFAD5F81441324631462046BD
:10315000C4E98C8995F81031C4F84C7284F81432A3
:10316000334684F8FC61A4F84862C4E9908900966B
:10317000FFF728FBD0B90123C4F8F801C4F8F00127
:1031800084F8FC31A4F80E02A4F80C0284F81102B1
:10319000B4F88030A4F84A02013BA4F880301AF059
:1031A00089F803B0BDE8F0431DF0C4BA4FF4FE71D6
:1031B0003020FDF7C7F900BFD0F81401704700BFF9
:1031C0002DE9F043002385B00322FF26CDE900332B
:1031D0008DF806206846FDF7EBFF044620BB009DF6
:1031E00095F83831002BF5D085F86061012128462B
:1031F00025F0B8FA95F83831002BEBD095F810018E
:103200001DF090FF95F810011EF00EFB95F81001CF
:103210001DF01AFC00283CD085F838416846FDF7BF
:10322000C7FF04460028DAD0DFF87C8001230025A0
:1032300002264FF6FF7788F804301AE0029BE3B1CC
:1032400093F81422202A18D01888B8421BD00221E3
:10325000FDF774FF814608B390F814021EF0E4FAFB
:1032600099F8140289F8FC411DF0EEFB202389F83F
:103270001432CDE902558DF80E6002A8FDF798FFD3
:1032800004460028DAD0002388F8043005B0BDE8F1
:10329000F0834FF4F4713020FDF754F94FF49A7134
:1032A0003020FDF74FF900BF040D0021044B002230
:1032B00042F210715A71D9801A71FFF781BF00BFB5
:1032C000040D00212DE9F84390F83831002B76D118
:1032D0000446884601465648154603F0FF071DF090
:1032E0007FFB202806466AD05822394604F58870AC
:1032F0001FF0BEF884F81061C4F81481FF2384F82D
:103300003831B8F1000F06D00FF0C8FD00F007000B
:10331000013088F8EC0102234FF00008A4F848318E
:1033200084F840811BF020FE00F1BC062046B6B2B6
:1033300025F0D9F9002846D022F00BFF00F5CD6129
:1033400028464FF0010989B21BF0C8FD2844C4F893
:1033500044011BF07FFF3018A4F8268041F10001E2
:10336000C4F8500184F818912046C4F8541125F08F
:10337000D0F9002845D0A5F2F2454946204625F06F
:1033800022F92D1AC4F81C514FF0FF326FF00043A0
:10339000C4E9562304F5A07194F810011DF066FCF1
:1033A00000283FD020460021D4E95423C4E94A2311
:1033B000C4E94C2325F0D6F93846BDE8F8830C273C
:1033C0003846BDE8F8830146204625F0FCF8DFF8D2
:1033D0006480F630C4F84401B8F8060008B1E08C07
:1033E000B8B906441BF036FF361841F10001C4E9B4
:1033F0005461002DC8D0AE1941F10001C4E95661F5
:10340000C8E7F63D484625F07DFA2D1AC4F81C5150
:10341000BAE70FF043FDB8F80630B0FBF3F202FB59
:103420001300DEE74FF4E5713020FDF78BF800BFA5
:10343000CD250001040D002190F838310BB9002092
:10344000704710B50446FF2380F86031012125F054
:1034500089F994F838310BB9002010BD94F81001A7
:103460001DF060FE94F810011EF0DEF994F81001D2
:103470001DF0EAFA20B1002384F83831002010BD95
:103480004FF4F4713020FDF75DF800BF014B587127
:10349000704700BF040D002190F8602182B910B57B
:1034A00002F0FF0490F8182112B90122104610BD55
:1034B000D0E947319942F9D912F02CFB2246F5E7C1
:1034C00000221046704700BF08B519F085FA054B79
:1034D0009A68824203D3187980F0010008BD002069
:1034E00008BD00BF040D002140F20B2108B524F0F7
:1034F00067F9B0F5296F28BF4FF4296080B208BD85
:1035000090F8CB31002B73D1F0B503F0FF0590F8A4
:10351000FC3185B00446032B01D005B0F0BD1BF093
:1035200099FED4E98C23801A61EB0301012871F123
:103530000003F2DB6FF00103834275EB01035ADBFA
:10354000E369B4F88020002B53D0B0FBF3F080B2D5
:103550000132B4F8C431104480B2A4F80C02B4F8BB
:103560000C229B1A1BB2002BD7DD94F814021DF01D
:10357000D9FD0028D1D0FF2384F81132B4F880504F
:103580000DF10E06B4F8BA20B4F8B83015441F4F48
:10359000013DED1A3B68ADB263B1B4F80C120022E4
:1035A0002046013989B29847B4F80C32184480B2E9
:1035B000A4F80C02B4F80C32EB1A1B04ADD4B4F826
:1035C0000C1200230122204689B20096FFF7FAF878
:1035D0000028A2D0012813D1B4F80C32BDF80E2077
:1035E00013449BB2A4F80C323B68002BD5D1E1E721
:1035F00070471846ACE740F2BB513020FCF7A2FF01
:1036000040F202613020FCF79DFF00BF68000021FE
:103610002DE9B043044682B0062900F29780DFE826
:1036200001F0041D0A1A232A6D004B4B1B7903F08D
:10363000FF02002B7CD0042384F8FC3119F03AFE01
:103640001DF078F80023B4F88020A4F84A32A4F8DA
:103650000E2284F8113202B0BDE8B083032380F853
:10366000FC3102B0BDE8B08319F000FAC4E98E0164
:1036700002B0BDE8B08390F86D30C569033BD0F867
:103680000412DFF8D480012B98F8053094BF4FF472
:10369000BD794FF4A9798D428CBF6D1A00251BB9F5
:1036A000436B9D4228BF1D46D4F8D07104F134000D
:1036B00023F0E5FF074402201DF03EFF0221ED1B31
:1036C00025EAE575854228BF054628461DF088FF96
:1036D00000B92F444A463946204624F057F8E2699B
:1036E000D4F8D031C8F80800D0181DF0E7FE002843
:1036F000B1D140F27E313020FCF724FF90F86D50BC
:103700002846033D1AF022FB4DF641710246134B49
:10371000012D20461144A3FB013194BF282300232F
:1037200003EB9111803102B0BDE8B04324F040B802
:10373000B0F8C41101230092FFF744F800283FF4C9
:103740007DAF4FF4DA613020FCF7FCFE40F284716B
:103750003020FCF7F7FE00BF040D0021D34D6210AE
:10376000012A70B5064609D0022A14460D461ED01D
:103770004AB140F2AE713020FCF7E4FE19F02CF9AA
:10378000C6F84C0270BD19F027F9224601462846BA
:10379000FFF7C4FC32460F4995F810011BF046FDB7
:1037A0000028EFD140F297713020FCF7CBFED0F823
:1037B0004C1201222846FFF7B1FC3246054995F824
:1037C00010011BF033FD0028DCD14FF4F5613020EF
:1037D000FCF7B8FEC92E0001F8B5044651B1012925
:1037E00060D1002380F8183119F064FDBDE8F8407D
:1037F0001CF0A0BFC58C002D4CD12046D4E94A76E0
:1038000024F030FF40194FF0000341F10001C019CE
:1038100084F840314FF0020346EB0101C4F8500137
:10382000C4F82801C4F85411A4F84831C4F82C1184
:1038300094F8603103F0FF01002BD5D16FF0004305
:10384000D4E956029A4208BFB0F1FF3F0CD104F50B
:10385000A07194F810011DF009FA0028C4D140F2BB
:10386000EF613020FCF76EFE2046D4E9545624F078
:10387000AAFED4F85831F630D4F85C215B1B62EB19
:1038800006021B1A62F10002002AE0DA204612F05A
:1038900041F9A9E70FF0EAFAE58CB0FBF5F303FB79
:1038A0001505AAE740F2BE713020FCF74BFE00BFC1
:1038B00090F83801003818BF01207047014BD880BC
:1038C000704700BF040D002106220B4603F8032BAE
:1038D000B0F809C0C27AA1F803C09A70704700BF5F
:1038E00040F2C321322008B5FCF72CFE10B582B09F
:1038F00090F8DE3073B903F0FF02ADF804209DF8B4
:10390000042000209DF8053062F3070063F30F20C8
:1039100002B010BD36380C4604F038FA18220423E1
:103920002270ADF80430EAE770B5002865D0437A1C
:1039300004460D46002B3FD000214089FDF7FEFBD9
:10394000064600285ED000880EF08AF900213088F3
:10395000FDF70AFC00285AD194F8546094F8A63078
:103960002BB194F8A7301E43002384F8A6302046DC
:1039700004F00CFAB30730D113212B4604F10902ED
:10398000293403F8031BD2F800C0103252F80C6C33
:10399000103352F8080C52F8041CA24243F810CC21
:1039A00043F80C6C43F8080C43F8041CEBD1117875
:1039B00000221970AA7170BD036DD0F80E20C3F8F3
:1039C0000320428AA3F80720427B036D12F0FD0F0B
:1039D00014BF012200229A70BEE7002226F00406DE
:1039E0002046114684F8546005F086F80028C3D1BB
:1039F0004FF44B713220FCF7A5FD4FF44371322098
:103A0000FCF7A0FD4FF446713220FCF79BFD4FF40C
:103A100047713220FCF796FD044B00221B68A3F887
:103A2000212183F8232183F870207047100D002195
:103A300008B50EF083FE034B187019F0ABFB0320A2
:103A400008BD00BF1000002108B50EF077FE024B44
:103A5000024601201A7008BD1000002138B5114C33
:103A600020686C3003F092FB656803F03FFB6368ED
:103A70002860186858B103F067FB68B119F0C0FC02
:103A8000002019F095FD636804221A7138BD40F2D8
:103A9000F7413220FCF756FD40F2F9413220FCF7A5
:103AA00051FD00BF100D002108B50EF047FE04497E
:103AB0000246044B48681A7003F0DAFB012008BD87
:103AC000100D002110000021F0B5534C00220E46CD
:103AD0000546236841F2707083B0196D5A72CA6945
:103AE000B1F800C0A3F80AC0A2F57A7C844540F280
:103AF00086804A48A0FB0202C2F38F221A848A8C75
:103B00005A84CA8C9A844FF47F42DA844FF6FF724B
:103B10001A85002D69D00121304623F08DF93278C5
:103B2000D209236893F8481009B1002A3DD1207BBF
:103B3000002108285961198343D003F10E0203F1D3
:103B40000D010EF07FFB002861D023685A7B03F142
:103B50001A0742F002025A73002D40D103F1780097
:103B600002683A608288BA8093F95810186D0EF096
:103B7000C9FD20682A4923F03FFD236829491A6DB1
:103B80001088A3F8330003F12A0092F88E2083F8FE
:103B9000352023F03AFD2068022105F05DF9206808
:103BA0006C3003F0F3FA03B0F0BD427902F0C002CA
:103BB000402ABCD102685A618288207B1A83082877
:103BC000BBD193F87E109A6FB3F87C005973002133
:103BD000C3F80E205882C3F81A10D983C4E7002115
:103BE000304623F029F92368BAE7A068694622F035
:103BF000D6FFA36868461A78C2F3801291E70A4894
:103C0000A0FB0202920902F5506292B276E741F2FD
:103C1000EA313220FCF796FC100D00215917B7D17C
:103C200029390001C9380001D34D621040F29D319D
:103C3000322008B5FCF786FC10B504788CB004F08F
:103C40000F0402A9224603F0ADFD0EF077FD234AD2
:103C5000042C107002D003200CB010BD204C03992E
:103C6000236891F800E093F878C0E645F3D191F825
:103C700001E093F879C0E645EDD191F802E093F8C0
:103C80007AC0E645E7D191F803E093F87BC0E645BA
:103C9000E1D191F804E093F87CC0E645DBD191F8DE
:103CA00005C093F87D108C45D5D193F87E309DF8F2
:103CB00019109942CFD17F280DD04FF07F0C009082
:103CC00002A9606882F800C0237C227B03F0D4FC48
:103CD00003200CB010BDFFF7A9FF00BF10000021AA
:103CE000100D00212DE9F04F054687B006290BD8AD
:103CF000DFE801F0A630100A0A0A0400B04C606840
:103D00008379002B40F0C58019F044FA032007B0F6
:103D1000BDE8F08F19F03EFAA94A136893F85410E1
:103D20008F07F3D0506881790029EFD0A54C94F922
:103D300000107F2900F0EF8102912946127B7F2538
:103D400042330192FF2200920222257003F0ECFB25
:103D50000320DCE79A4CAE7C60682168012E8379F1
:103D600090F80790059391F8483083F0010B00F02C
:103D7000AB80002691F85420374612F0040300F07F
:103D8000AB8091F84DE0BEF1000F00F0A58091F8F6
:103D90004E80B8F1080F40F0A28091F841800027D2
:103DA000404623B36A6891F85BC092F800E0E645AC
:103DB00000F04B814FF0000A62685279082A05D062
:103DC00091F84EC0944508BF4FF0010A002F40F013
:103DD000E280BBF1000F40F032813846B9F1000FAC
:103DE00040F0DB8019F0D6F9236893F8542093074C
:103DF0008CD019F0CFF9059B002B87D02068AB68D9
:103E000000F14201AA7C90F8410022F032FC17B97F
:103E1000002800F058816B4E96F900307F2B00F09F
:103E20007A8102932946237B0122CDE90083D4E9DC
:103E300000307F244233347003F076FB032066E7C2
:103E40005F4C2368606893F85420570719D5C279EE
:103E5000002A56D06A6893F85B1016788E4200F0FC
:103E6000C98093F85620012A00F0A68093F84E30BE
:103E7000082B03D042799A4200F09E8019F08AF90B
:103E800060688379002B40D1C379002B7FF43EAF6B
:103E90003AE7236893F85420960760D5494A92F987
:103EA00000107F2900F0378102912946257B42339B
:103EB0000195FF2500957F251570062203F034FB40
:103EC00000230920237422E7AA68527902F0C00275
:103ED000402A7FF44EAF4DE790F8058059E7404601
:103EE0000EF0BEF8002818BF8346002F40F0DB809C
:103EF000216891F8418091F85420404602F0040373
:103F00004FE78379002B3FF4FFAE236893F85420EA
:103F1000960759D4D0077FF5F9AE510700F1F48028
:103F2000284B93F900207F2A00F0F5807F20029231
:103F3000227B29461870FF202368019200220090FE
:103F40004233606803F0F0FA03206368DA79002AEC
:103F50007FF4DDAE9B79002B7FF4D9AED4E6D10798
:103F60007FF5D2AE530700F1CC80164B93F90020B9
:103F70007F2A00F0D0807F200292227B2946187091
:103F8000D4E90030FF24019242330622009403F06A
:103F9000CBFA0320BBE6012020E7236893F85630D4
:103FA000012B06D0002B7FF41DAFBAF1000F3FF4B8
:103FB00019AF00283FF416AF0A2007B0BDE8F08F14
:103FC000100D002110000021544A92F900107F29A1
:103FD00000F0A18002912946257B42330195FF25FF
:103FE00000957F251570002203F09EFA0123092019
:103FF0002374AAE7567893F85C108E427FF431AFB1
:10400000967893F85D108E427FF42BAFD67893F8B4
:104010005E108E427FF425AF167993F85F108E42C2
:104020007FF41FAF517993F8602091427FF419AF6C
:10403000697C93F85A2091427FF413AFBCE7423178
:10404000AB68AA7C22F015FBC8E692F801E091F873
:104050005CC0E6457FF4AEAE92F802E091F85DC038
:10406000E6457FF4A7AE92F803E091F85EC0E6451E
:104070007FF4A0AE92F804E091F85FC0E6457FF4CB
:1040800099AE92F805C091F8602094457FF492AE05
:1040900095F811A091F85A20AAEB0202D2F1000A79
:1040A0004AEB020A88E6A96840460EF0E3F9216867
:1040B000074691F8542091F8410047B340F00208B8
:1040C00002F004036DE6236893F85520023A012AB2
:1040D0003FF61CAE002E3FF419AE104E96F90020AC
:1040E0007F2A18D002924233227B294660687F24BF
:1040F0000192FE2200920122347003F015FA03208F
:1041000005E619F047F830E719F044F808E780466B
:1041100002F0040345E6FFF789FD00BF100000210F
:104120000E4A536810B5197902290CD91979082952
:104130000ED8197952690A4B92680B44BDE81040B9
:1041400052F82330184741F293413220FCF7FAF934
:1041500041F294413220FCF7F5F900BF100D002127
:10416000FDFFFF3F38B5194D6B681B79022B28D82E
:104170002B680446027C83F8A4201A44C16899661F
:1041800092F8242183F820214268C3F88820037A1A
:10419000022B0ED018F016FD19F054FA17F072FF2A
:1041A0000B4819F017F90B4819F00EF90A4818F0E6
:1041B0000FFE637C23B12B685B6E0BB101221A608A
:1041C00038BD40F6EA013220FCF7BCF9100D0021A1
:1041D0001C01002155555500D6BE898E70B53A4C4C
:1041E000064663681A79032A30D01A79042A2DD03A
:1041F000226892F8542092072DD1A568002D40D056
:10420000236893F85430002B40D03EB1284622F06A
:10421000F1FE28BB284622F008FF08BB63681A7924
:10422000022A3DD91A79082A3FD819796269274BA1
:1042300052690B4452F8233098470C282BD86369F5
:10424000DB68BDE8704053F820301847186802F06A
:104250007BFF0546D2E7186802F078FF0546CDE7F8
:1042600063681A79022A25D91A79082A27D8197970
:1042700028466269154B12690B4452F8233098475F
:10428000DBE741F29B313220FCF75CF941F2A131CE
:104290003220FCF757F941F2B4313220FCF752F9E1
:1042A00041F281313220FCF74DF941F28231322066
:1042B000FCF748F941F221313220FCF743F941F291
:1042C00022313220FCF73EF9100D0021FDFFFF3FA7
:1042D0001B4B2DE9F04793F9008084B0B8F17F0FB4
:1042E0002CD0184C7F2281460E4667681A703B79A5
:1042F000032B1AD03B79062B0CBF4FF0030A4FF06B
:10430000010A236803F1420518F042FB324600908F
:104310002B46257B494638460195CDE9028A02F0B5
:10432000F7FF28B904B0BDE8F0874FF0000AE8E7CE
:10433000606804B0BDE8F04702F05ABFFFF776FCB2
:1043400010000021100D002138B505460C460DF077
:104350001BFB420704D4A37803F0E003402B0DD0ED
:104360000DF012FB830704D4A37803F0E003202BA5
:1043700004D0237803F03F03242B01D9002038BD5B
:1043800018F00CFB94F9003094F802C0002B62780E
:104390000CF01F03ACBF1E214FF4967142EA0323B9
:1043A00001FB03F31A1AB2F5877FE7D39842E5D8E9
:1043B000054A294623881068A0F8213180F823C1D6
:1043C000BDE8384003F068BD100D00212DE9F0472D
:1043D000344E84B07568AB796BB3D6F800A0044650
:1043E00089469AF8953033B90378002B0CBF012326
:1043F00002238AF8953028790628C3B23ED0072BCD
:1044000014BF4FF001084FF00208274890F90070E0
:104410007F2F45D07F23037018F0BAFA317B0AF161
:10442000420300904A46019128462146CDE9027890
:1044300002F06EFF20B90025284604B0BDE8F087E1
:10444000657815F010051CD0A1690220FFF77CFFEC
:104450000546E8B10023326882F896306369DBB123
:104460005978C1F3031182F8971059781B7801F03D
:104470000F0143EA0123A2F89830DDE74FF003086B
:10448000C3E7706802F0B4FE284604B0BDE8F087C8
:10449000706802F0EDFECFE7FF2382F89730CBE79C
:1044A000FFF7C4FB100D00211000002110B50446D9
:1044B0008AB00EF043F9194A2378107003F00F0305
:1044C000072B02D001200AB010BD2046694603F038
:1044D00007FA684603F0F2FA9DF80030002BF1D19C
:1044E0009DF80130DB07EDD50D4C019922689DF850
:1044F000110002F1780392F87E2022F0BAF8002829
:10450000E0D020680121A03021F0F2FDFF216846B3
:10451000FFF75CFF0028D5D00220D4E7100000216F
:10452000100D00212DE9F04304468BB00EF006F982
:10453000404A2378107003F00F03082B04D00125A4
:1045400028460BB0BDE8F0836946204603F05EF9CB
:104550009DF80050002DF2D19DF8013003F00303C7
:10456000032BECD1344E376897F84D308BB397F866
:104570004E90737B8BBB4FF0000807F1780397F8E0
:104580007E2001999DF8110022F073F810B9B8F15E
:10459000000FD4D097F84820376897F84180423709
:1045A000002A36D19DF812000299012821D03B46FD
:1045B000424622F05EF80028C1D030680121A030C8
:1045C00021F096FD737B6BBB21460120FFF77CFA3F
:1045D000B6E7736893F80590CBE722F08EF80828C9
:1045E000C9D0A0EB09083073B8FA88F84FEA581818
:1045F000C3E74B7903F0C003402BD8D13B4642467A
:1046000022F037F80028D8D1029948460DF032FF41
:10461000D1E748460DF068FF0028C3D007464FF0A9
:104620000108BFE719F00EF817F02CFD0023737393
:10463000CAE700BF10000021100D0021F0B5534F54
:1046400085B03B6893F89430CBB1437804461B07A0
:1046500015D503789BB93B680E46D3F890005030CF
:1046600024F056FE054650B93B68D3F89000827D91
:104670004AB963695978837AB3EB111F03D00025D7
:10468000284605B0F0BD6368002B52D0796849799F
:1046900008292ED0084602AA0DF107010DF0D2FD1F
:1046A000064600286DD03B68D3F89000837D002B30
:1046B0004BD0636902A99DF807005A7812091FF0D0
:1046C000D7F80028DCD03B68BDF80C10D3F8902058
:1046D00002981182D0609DF80710D3F89020D17213
:1046E0006369012135465B789174C3F303139372B8
:1046F000C6E7002A37D062691946607C52781209F1
:104700001FF0B6F80028BAD0636939685A78D1F832
:104710009030C2F303129A7262681068D86092886F
:104720001A82D1F89030627CDA72002201259A74E4
:10473000A6E726B3012EA2D17B68186803F014F80F
:1047400000289CD07B681D7A9AE700F10C0102AB2F
:104750009DF80720C07A21F08CFF002890D03B689C
:10476000D3F89020BCE700F10C01627CC07A21F004
:1047700080FF002883D03B68D3F89030D5E701252F
:104780007EE740F6BF713220FBF7DCFE100D002102
:104790004378F0B50446580687B071D4227803F008
:1047A0001F0352EA03236BD008466188052967D9A5
:1047B000227A6368C2F3040253EA020560D0344DE2
:1047C0002D68002D5ED000285CD0A847002857D067
:1047D000304E0121227A3068C2F304026368D0F8B7
:1047E000905069768DF814201A0A8DF8103005F172
:1047F0001E008DF811201A0C1B0E04A98DF8122032
:104800008DF8133022F083F8628840F2E24303FB14
:1048100002F2637BAA67D4F809202A60A27B43EAEC
:104820000223E27B43EA0243227A6B60C2F3421224
:10483000238A85F89220013B3268A5F8623092F80D
:104840002031EB75637825789A0603F01F0354BF77
:104850001E224FF4967245EA0323174602FB03F526
:1048600018F004F90B46218A024630680631D0F868
:10487000900089B2019750300095029114F024FE07
:1048800007B0F0BD034E3168D1F89050AAE700BFE1
:10489000FC000021100D00212DE9F04FDFF8E8A009
:1048A0009346847C83B0DAF800200646012C8946C2
:1048B00092F84870984687F0010738D000249AF89B
:1048C0000D502346E5B192F85410490721D472687F
:1048D000A2B3DAF804205579082D22D02846019396
:1048E0000DF0BEFB019B002818BF0746EBB19AF8FC
:1048F0000F307BB321F00BFF002305468AF80F3001
:104900008BF8005089F8004088F8007003B0BDE8CB
:10491000F08F92F84D100029D9D092F84E50082D02
:10492000DCD113B19AF80E10D1B10025E8E7836805
:104930005B7903F0C003402BC0D1C0E7DAF8042054
:104940000193106802F010FF019B0028C1D1002BD9
:10495000EBD0E7E72846B1680DF08CFD0546CFE7C0
:10496000B06801910DF086FC05468AF80D0000281C
:10497000C6D021F0C2FE0828019903D0DAF804302D
:104980005871BDE70D46BBE7100D002108B5054B7A
:10499000586802F02DFC0DF0D1FE034B02460120B9
:1049A0001A7008BD100D0021100000212DE9F843F8
:1049B000774C002205460F46A368D4F800901846AD
:1049C0001A8018F053FD0646002836D0032D4ED02D
:1049D000052D56D0A06809F1780122F0E7F899F882
:1049E0007E10A06822F0F6F8236893F8482003F1BF
:1049F000420793F8418092B9A068394622F0C8F87E
:104A00004146A06822F0D9F8624BD3F80431002B5C
:104A100040F0B980052D1DD03046BDE8F88393F8ED
:104A2000542052070FD4636858790DF05DFD0028BB
:104A3000E2D007464FF00108DEE703200EF038F918
:104A40003046BDE8F88393F84D20002AEBD093F868
:104A50004E00EAE72368304639681A6DC2F80A103A
:104A6000B988D1811B6D83F80980BDE8F883A068FF
:104A70000C234370037823F00F0343F00303037008
:104A8000A9E7D4F808802223226898F8001088F853
:104A9000013021F02F0141EA471747F0050788F858
:104AA0000070136D1B6AC8F80F30116D8B6A180AFD
:104AB00088F813301B0C88F8140088F8153091F82A
:104AC0007630088E002B4BD1334FA7FB0030CB6ADA
:104AD000A7FB0373800AC3F38F2388F817301B0AE0
:104AE00088F8160041F2707088F81830CB69A3F589
:104AF0007A7787423FD92848A0FB0303C3F38F236B
:104B000088F819301B0A88F81A308B8C88F81B300B
:104B10001B0A88F81C30CB8C88F81D301B0A88F8DB
:104B20001E30D1F88F30C8F81F3091F8933088F8D4
:104B30002330136D98F8242093F89A3022F01F0246
:104B400003F01F03134388F824300CF043FF98F858
:104B5000243003F01F0343EA401388F8243039E778
:104B60000E4FA7FB0030CB6AA7FB0373C0F34710BF
:104B7000C3F34F13B1E70A48A0FB03039B0903F5F6
:104B800050639BB2BCE740F23F613220FBF7DAFC96
:104B9000100D0021008000415917B7D11F85EB513E
:104BA000D34D621038B5154C236893F854309B07E9
:104BB00018D1A568E5B12368FF2093F8201117F0FC
:104BC0009BFF284618F01CFC236893F82031033B18
:104BD000012B94BF2820002018F0EAFC636807220C
:104BE0001A7138BD6368186802F0B0FA0546E1E74B
:104BF00040F21E513220FBF7A5FC00BF100D002132
:104C000038B51E4C0E20236893F8201117F074FF5E
:104C1000236893F854309B0724D1A56845B32846F0
:104C200018F0EEFB236893F82031033B012B94BF6F
:104C30002820002018F0BCFC2368681D93F8205140
:104C40000DF046FB607348B1033D012D94BF55251F
:104C5000502517F0FBF9284618F0E8FC6368082295
:104C60001A7138BD6368186802F070FA0546D5E716
:104C700040F20B513220FBF765FC00BF100D002104
:104C800070B50D4D0222D5E900031A7103F05CFFE7
:104C900000B170BD2E68044606F16C0002F0E8FA1F
:104CA0002868A6F8214186F8234186F87040BDE8BF
:104CB000704004F0A7B800BF100D002110B50A4CD9
:104CC0000DF03CFD094A637B10701BB918F062FAC5
:104CD000032010BD18F0B6FC17F0D4F9002363735D
:104CE00018F058FA032010BD100D0021100000210B
:104CF00070B52D4C0546236893F823215F2A2CD8E4
:104D000051092A4A565C93F8210100F03F0018F03F
:104D100069F8236893F9580018F054F8FDB1236836
:104D200032460120996E18F0D9F92368314693F87C
:104D30009630022B0CBF4020FF2017F0DDFE2368C9
:104D400093F85420920710D193F89530A568B3B129
:104D50002846BDE8704018F053BB0026D3E7324622
:104D60007321012018F0BAF9DFE76368186802F0D0
:104D7000EDF92368054693F89530002BE8D1681DBE
:104D80000DF0A6FA60730028E2D0033E012E94BF16
:104D90005524502417F05AF9204618F047FC2846AD
:104DA000BDE8704018F02CBB100D00211449030120
:104DB000F0B52F4C83B00646236893F823215F2A71
:104DC00030D851092B4A575C9A6E7ABBD3F88800C9
:104DD00018F086FB256895F854309A0703D595F8A6
:104DE0009620022A33D05B072DD46368186816BB5F
:104DF00002F0BAFC63680646186802F0BBFC024683
:104E000005F19A002568314695F8963095F82051BD
:104E1000009502F0FBFD2268002382F82071A37345
:104E200003B0F0BD9A6E0027002ACFD00120FFF713
:104E30005FFF2368CAE702F0A9FC014605F19A006A
:104E400002F0DAFDE7E795F89630012BCDD1FB1E95
:104E5000012B05D93946002018F0D2FC2568C4E79B
:104E600095F85930012B14BF39460321F3E700BFF1
:104E7000100D00211449030110B50B4C637B63B97D
:104E8000A1680020FEF720FE23680022A3F821215C
:104E900083F8232183F8702010BD18F0D3FB17F09E
:104EA000F1F800236373EBE7100D002110B50E4CF1
:104EB000637B8BB900220120D4E90031087103F132
:104EC0006C00A3F8212183F8232102F05FF9206808
:104ED000BDE8104003F096BF18F0B4FB17F0D2F80D
:104EE00000236373E6E700BF100D002107292DE9B9
:104EF000F04F0D4687B004469146476803D12FB95D
:104F0000002A00F0BD80002F00F08480637CDFF871
:104F1000A482012B44D0D8F80430587908285AD0FC
:104F20000DF10F0104AA0DF08DF9002800F0388171
:104F300004A99DF80F0023F04CF80746D8F800109C
:104F400091F854C01CF0030A6DD1D8F8046086F8BB
:104F500006A091F8543013F0040340F0BA80F371C6
:104F6000954B1B682BB14946204698473072D8F8BC
:104F7000046063684BB1617CD8F8002082F87E1031
:104F8000196891679B88A2F87C30337A002B00F077
:104F90000C81072DA06800D188BB07B0BDE8F08F59
:104FA0007B7903F0C003402BB5D1072D98F80D3065
:104FB00000F0BC80002BAED0D8F8046021F09DFB3F
:104FC000D8F80430707158790123082888F80C004B
:104FD00088F80E30A4D16168607C22F0FAFFD8F81E
:104FE0000420074661680532607C0DF061F80346D5
:104FF0000028A3D1D8F80460F0803072C9E7717935
:105000000829CAD0002BC8D00DF052F9012388F826
:105010000F30C2E7DFF89C81D8F8001091F854C037
:105020001CF0030A91D0062D91F84CA0D8F804602A
:105030006AD9082D6DD896F806B08BF00103B9F146
:10504000000F0CBF002303F00103002B61D1626845
:10505000002A59D1B9F1000F40F08D806278D00656
:1050600040F1898001201CF0040FB0713FF477AF4C
:1050700091F84D3096F807A0D2066ED501236EE761
:10508000DFF83081D8E9001091F8543013F00302B2
:1050900018BF012213F00403827105D02378A3F115
:1050A0000103B3FA83F35B09C37191F89430002BC9
:1050B0003FF473AFD8F80030D3F89000503024F0AC
:1050C00027F900287FF469AFD8F8043001221A725A
:1050D00063E7062D91F84D3004D8002B7FF43FAFE5
:1050E0003B463CE796F807A0082D1DD8BAF1010F02
:1050F00002D0B9F1000F17D16268002AEDD1B9F1E1
:10510000000F2AD16278B7E7BAF1000F08BFBA469C
:105110001DE70023B3711CF004033FF420AF91F8A6
:105120004D3096F807A0DFE7002318E7002B3FF487
:10513000F2AEB9F1000F7FF43FAFD8F8003093F82A
:10514000201101297FF438AF38460DF093F888F824
:105150000D0000283FF4DFAE2EE73068019302F027
:1051600003FB1AEA000702D1019B9BB11F46D8F846
:1051700004603B46F3E6306802F0F6FA1BEA000BE7
:105180000CD1BAF1000F02D10CF08CFF8246D8E9A5
:105190000016DCE60CF086FF0746E8E7DA46F6E79D
:1051A00040F693313220FBF7CDF9F388003B18BF6E
:1051B0000123EEE6100D00216C00002110B50F4C0C
:1051C000606802F055F8637B8BB900220120D4E9B6
:1051D0000031087103F16C00A3F8212183F8232129
:1051E00001F0D4FF2068BDE8104003F00BBE18F0BA
:1051F00029FA16F047FF00236373E6E7100D00213C
:1052000010B5104C0DF09AFA0F4A637B10708BB9F1
:1052100000220120D4E90031087103F16C00A3F8E9
:10522000212183F8232101F0B1FF2068BDE810405F
:1052300003F0E8BD18F006FA16F024FF00236373AC
:10524000E6E700BF100D00211000002110B5114C41
:10525000606802F00DF80DF071FA0F4A637B107070
:105260008BB900220120D4E90031087103F16C00F0
:10527000A3F8212183F8232101F088FF2068BDE8ED
:10528000104003F0BFBD18F0DDF916F0FBFE00235F
:105290006373E6E7100D00211000002110B5134CD8
:1052A0000DF04CFA124A00212368107003F1A0009F
:1052B00020F01EFF637B8BB900220120D4E900316E
:1052C000087103F16C00A3F8212183F8232101F078
:1052D0005DFF2068BDE8104003F094BD18F0B2F9FE
:1052E00016F0D0FE00236373E6E700BF100D002127
:1052F0001000002110B5144C606801F079FF0DF02A
:105300001DFA024620680021104BA0301A7020F0D0
:10531000EFFE637B8BB900220120D4E900310871D4
:1053200003F16C00A3F8212183F8232101F02EFF63
:105330002068BDE8104003F065BD18F083F916F051
:10534000A1FE00236373E6E7100D00211000002189
:1053500010B500210320164CFFF728FB20B10321D4
:10536000206802F099FD98B9637BCBB90022012037
:10537000D4E90031087103F16C00A3F8212183F80E
:10538000232101F003FF2068BDE8104003F03ABD7F
:105390000121084618F034FA636809221A7110BD19
:1053A00018F050F916F06EFE00236373DEE700BFBD
:1053B000100D002110B51C4C0C220121D4E9000372
:1053C0001A7103F049FD00210520FFF7EFFA20B123
:1053D0000621206802F060FD98B9637BEBB90022DA
:1053E0000120D4E90031087103F16C00A3F82121F8
:1053F00083F8232101F0CAFE2068BDE8104003F0C5
:1054000001BD2368012093F8201118F0F9F92368F1
:1054100001221B6D83F88E2010BD18F013F916F0D1
:1054200031FE00236373DAE7100D002170B5244CC0
:10543000236893F823215F2A29D85109214A565C11
:105440009A6E42BBD3F8880018F04AF8256895F8A0
:1054500054309A0703D595F89620022A20D05B078E
:1054600003D595F89630012B1AD06368186802F0BE
:105470008DF9014605F19A0002F0BEFA002221687A
:105480006368A273062281F820611A7170BD9A6E5A
:105490000026002AD6D00120FFF72AFC2368D1E796
:1054A000F31E012B05D93146002018F0A9F9256813
:1054B000DBE795F85930012B14BF31460321F3E7A0
:1054C000100D00211449030138B5154C0521206841
:1054D00002F0E2FC48B12368012093F8201118F093
:1054E0008FF963680B221A7138BD637B8BB9002278
:1054F0000120D4E90031087103F16C00A3F82121E7
:1055000083F8232101F042FE2068BDE8384003F013
:1055100079BC054618F096F816F0B4FD6573E6E719
:10552000100D002138B5234C6368186801F00CFE9B
:1055300000283AD063680A22054600211A712068C3
:1055400003F08AFC22682B780520126D92F88E50A9
:1055500005EA531505F001052946FFF727FA48B17A
:105560000421206802F098FC20B123681B6D83F8A9
:105570008E5038BD637B8BB900220120D4E9003105
:10558000087103F16C00A3F8212183F8232101F0B5
:10559000FDFD2068BDE8384003F034BC18F052F837
:1055A00016F070FD00236373E6E740F2635132208A
:1055B000FAF7C8FF100D0021F0B52C4C83B023681A
:1055C00093F823215F2A37D85109294A575C9A6EEC
:1055D000002A35D1D3F8880017F082FF256895F8A6
:1055E00054309A0703D595F89620022A2DD05B07F0
:1055F00003D595F89630012B27D06368186802F020
:10560000B3F863680646186802F0B4F8024605F17C
:105610009A002568314695F8963095F82051009506
:1056200002F0F4F9002221686368A273052281F870
:1056300020711A7103B0F0BD9A6E0027002AC9D0FC
:105640000120FFF755FB2368C4E7FB1E012B05D99A
:105650003946002018F0D4F82568CEE795F859307F
:10566000012B14BF39460321F3E700BF100D0021C1
:1056700014490301012910B512D188B91D4A536894
:10568000197908292BD919790C292DD8197952693A
:10569000194B52680B44BDE8104052F823301847AC
:1056A000144C606801F0E4FD637B8BB9002201209B
:1056B000D4E90031087103F16C00A3F8212183F8CB
:1056C000232101F063FD2068BDE8104003F09ABB80
:1056D00017F0B8FF16F0D6FC00236373E6E741F23B
:1056E00063413220FAF72EFF41F264413220FAF78B
:1056F00029FF00BF100D0021F7FFFF3FF0B55A4C06
:1057000083B020686C3001F041FD656801F0EEFC6B
:10571000636828601868002800F0A18001F014FD7B
:105720000546002800F09680236893F8A630002BE9
:1057300054D1D4E9000290F8A430034493F82471C2
:1057400080F82071137913B11379012B5FD190F890
:10575000A520464B1344187917F044FB236893F8AF
:10576000A420134493F82461022E4ED02FD9F31EA7
:10577000012B2ED801F0B4FC314617F0BDF92846B4
:1057800017F03EFE3146012017F03AFB012F34D0CE
:10579000681D0CF09DFD607348B1033F012F94BF5D
:1057A0005525502516F052FC284617F03FFF626839
:1057B000082100232068517121730321D3801372C3
:1057C000E38180F895302374117103B0F0BD012E90
:1057D000D0D040F2FE713220FAF7B4FE236893F87D
:1057E000542093F8A700196D0243C3F8101183F8F1
:1057F0005420002283F8A6209BE7E81C0CF068FDEB
:1058000060730028D3D04025CCE70D20B4E70021F9
:1058100002F042FB08B1206899E7637B93B900224C
:105820000120D4E90031087103F16C00A3F82121B3
:1058300083F8232101F0AAFC206803B0BDE8F04002
:1058400003F0E0BA019017F0FDFE16F01BFC019882
:105850006073E4E740F256413220FAF773FE40F2FB
:1058600054413220FAF76EFE100D00211449030155
:1058700008B50CF063FF044B187017F08BFCBDE803
:105880000840FFF73BBF00BF1000002110B50C4CD3
:105890000CF054FF0B4A637B10702BB917F07AFCA5
:1058A000BDE81040FFF72ABF17F0CCFE16F0EAFB68
:1058B0000023637317F06EFCBDE81040FFF71EBFB6
:1058C000100D00211000002138B50446FEF74AFCF7
:1058D000237A032B62D0012B69D051D84D4C4E490D
:1058E000226892F8A53092F84B000133A1FB035CCB
:1058F0000CF4FF7505EB5C055B1B40FA03FCDDB2A5
:105900001CF0010F16D10133A1FB035C2CF0010543
:1059100005EB5C055B1B40FA03FCDDB21CF0010FDC
:1059200008D10133A1FB035121F0010505EB510121
:105930005B1ADDB282F8A55092F9580017F042FACE
:105940002368002283F89520FFF7D8FE256895F894
:105950004830A3B16FF00043D5E920129A4208BF46
:10596000B1F1FF3F0BD019F075FCD5E9202390422F
:1059700071EB030303D301200CF048FD08BB38BDD5
:10598000023B012BFBD8234C236893F8950088B980
:10599000FFF70EFA636805221A7138BD1D4B1B68AC
:1059A000986E88BBFFF7A4F9237A012B95D1194C87
:1059B0002268C1E70120FFF7FBF9636806221A712C
:1059C00038BD25680CF038FC044619F043FC63012F
:1059D000E20E1B1B62F10002520242EAD3525B024A
:1059E0001B1942F1000C9A014FEA8C1ED21A4EEAA2
:1059F000936E6EEB0C0C13194CF100021B1842EB6A
:105A00000101C5E9203138BD40F62F113220FAF7E7
:105A100099FD00BF100D0021ABAAAAAA2DE9F047FD
:105A2000A64F86B0D7F8008098F857305BB17E68F3
:105A30000546B37963B12C78012C12D0022C00F00A
:105A4000E080002C54D00324204606B0BDE8F08747
:105A5000F279002AEFD1327A002AF4D02C78012C86
:105A6000ECD198F82031022B6B7800F0018103F023
:105A70001803182BE7D198F85430590700F1FE802D
:105A80009A0718D08E4B93F900407F2C00F07B8151
:105A90007F221A7016F07CFF397B08F142030090D8
:105AA000FF2201910021304602940391294601F022
:105AB0002FFC0028C7D0A9690120FEF745FC00286B
:105AC000C1D001233A6882F896306B69002B00F050
:105AD000E88059780224C1F3031182F897105978AD
