:1000000030700120618B00003BF603004D8B000037
:100010004D8B00004D8B00004D8B00004D8B000080
:10002000000000000000000000000000F58C00004F
:100030004D8B0000000000005D8C00004D8B000027
:10004000FD8E0000FD8E0000FD8E0000FD8E000084
:10005000FD8E0000FD8E0000FD8E0000FD8E000074
:10006000FD8E0000FD8E0000FD8E0000FD8E000064
:10007000FD8E0000FD8E0000FD8E0000FD8E000054
:10008000FD8E0000FD8E0000FD8E0000FD8E000044
:10009000FD8E0000FD8E0000FD8E0000FD8E000034
:1000A000FD8E0000FD8E0000FD8E0000FD8E000024
:1000B000FD8E0000FD8E0000FD8E0000FD8E000014
:1000C000FD8E0000FD8E0000FD8E0000FD8E000004
:1000D000FD8E0000FD8E0000FD8E0000FD8E0000F4
:1000E000FD8E0000FD8E0000FD8E0000FD8E0000E4
:1000F000FD8E0000FD8E0000FD8E0000FD8E0000D4
:10010000FD8E0000FD8E0000FD8E0000FD8E0000C3
:10011000FD8E0000FD8E0000FD8E0000FD8E0000B3
:10012000FD8E0000FD8E0000FD8E0000FD8E0000A3
:10013000FD8E0000FD8E0000FD8E0000FD8E000093
:10014000FD8E0000FD8E0000FD8E0000FD8E000083
:04015000FD8E000020
:100158002DE9F14F03F11C0402EB840C4FEA930BD9
:100168008A68CB680868496800F046F93CE9F000FD
:100178006040694072407B400BF1060E4EE083EA16
:10018800134480EA134582EA134746BA96EA344490
:10019800604000F00F1684EA063420F00F1684EA57
:1001A800161054BA94EA0106724002F00F1486EA57
:1001B800043622F00F1486EA14124CBA65406940DE
:1001C80001F00F1485EA043521F00F1485EA1411A3
:1001D8005CBA67407B4003F00F1487EA043723F0CA
:1001E8000F1487EA141344BA44404DBA4D4056BA26
:1001F80056405FBA5F4087EA174886EA174B84EA99
:1002080017464FEA38488BEA1B4485EA1B4788EAB9
:100218001B4580EA3440694072407B4000F07034EE
:1002280000F0803500F00F3040EA440040EAD50085
:1002380080EA900404F0332480EA8400604001F0EE
:10024800703401F0803501F00F3141EA440141EA90
:10025800D50181EA910404F0332481EA84016140E4
:1002680002F0703402F0803502F00F3242EA4402A4
:1002780042EAD50282EA920404F0332482EA840234
:10028800624003F0703403F0803503F00F3343EA23
:10029800440343EAD50383EA930404F0332483EA4E
:1002A80084036340C943DB4381EA000483EA0446CC
:1002B80086EA020183EA014382EA334583EA14436A
:1002C8005C4084EA00077FEA040A8AEA024A8AEA6A
:1002D800010B87EA11488AEA374A80EA060181EA6F
:1002E8001A418AEA030A04EA0A00454088EA040730
:1002F80007EA0B0041408AEA0B0608EA060084EA8E
:1003080034428AEA3A4602EA0603584045404140E8
:1003180087EA37438BEA3B4003EA000985EA090587
:1003280082EA0309464006EA0906714085EA0100A7
:1003380005EA3546464006EA314181EA304181EA1C
:10034800364606EA304686EA354634400F4086EAA5
:10035800010508EA050886EA3640024088EA0208EC
:1003680081EA314213405C4080EA020309EA03094A
:1003780087EA0907674088EA040806EA0A0601EAE4
:100388000B018AEA0B0425408AEA3A44204045409A
:100398008BEA3B4B02EA0B02564084EA0B042340EB
:1003A80059406E40694087EA364080EA384080EA22
:1003B800060380EA104481EA134585EA344585EA54
:1003C80017427D4082EA354180EA05403CE9F00069
:1003D8006040694072407B40BEF1010E3FF6CFAEEF
:1003E80020BC00F05FF828606960AA60EB60BDE897
:1003F800F08F00BF00F000BA80EA101404F0F01487
:1004080080EA0410604081EA111404F0F01481EAD3
:100418000411614082EA121404F0F01482EA041212
:10042800624083EA131404F0F01483EA041363406F
:1004380080EA102404F47F4480EA0420604081EAC2
:10044800112404F47F4481EA0421614082EA1224E1
:1004580004F47F4482EA0422624083EA132404F409
:100468007F4483EA0423634081EA500404F055344E
:1004780080EA4400614083EA520404F0553482EA79
:100488004402634082EA900404F0333480EA840032
:10049800624083EA910404F0333481EA84016340C2
:1004A800704700BF82EA900404F0333480EA840085
:1004B800624083EA910404F0333481EA84016340A2
:1004C80081EA500404F0553480EA4400614083EA2C
:1004D800520404F0553482EA4402634080EA10244E
:1004E80004F47F4480EA0420604081EA112404F483
:1004F8007F4481EA0421614082EA122404F47F44A3
:1005080082EA0422624083EA132404F47F4483EAE3
:100518000423634080EA101404F0F01480EA041005
:10052800604081EA111404F0F01481EA041161407A
:1005380082EA121404F0F01482EA0412624083EA98
:10054800131404F0F01483EA04136340704700BFE7
:100558002DE9F14F94464FEA930B8A68CB680868F7
:100568004968FFF749FF0BF1060E33E083EA1344AD
:1005780080EA134582EA134746BA96EA3444604053
:1005880000F00F1684EA063420F00F1684EA1610DD
:1005980054BA94EA0106724002F00F1486EA04364F
:1005A80022F00F1486EA14124CBA6540694001F033
:1005B8000F1485EA043521F00F1485EA14115CBA8A
:1005C80067407B4003F00F1487EA043723F00F14C9
:1005D80087EA1413BCE8F0006040694072407B4031
:1005E80000F0E03400F0103500F00F3040EA54001D
:1005F80040EAC50080EA900404F0332480EA8400CD
:10060800604001F0E03401F0103501F00F3141EAAB
:10061800540141EAC50181EA910404F0332481EAD6
:100628008401614002F0E03402F0103502F00F322C
:1006380042EA540242EAC50282EA920404F03324F0
:1006480082EA8402624003F0E03403F0103503F0DC
:100658000F3343EA540343EAC50383EA930404F0DF
:10066800332483EA8403634081EA324787EA1345E7
:1006780081EA354690EA060484EA034B82EA1B4283
:1006880080EA044484EA054483EA144A85EA144467
:100698008BEA044B84EA374481EA0B4181EA16412C
:1006A80004EA0A00454082EA04082BEA08004140AF
:1006B8008AEA0B0602EA060084EA34438AEA3A46E2
:1006C80003EA060778404540414088EA38478BEA04
:1006D8003B4007EA000985EA090583EA070946401D
:1006E80006EA0906714085EA010005EA35464640F2
:1006F80006EA314181EA304181EA364606EA304667
:1007080086EA3546344008EA010886EA01052A40A7
:1007180086EA364003405A4081EA31431F407C4014
:1007280080EA030709EA070988EA0908544088EAC1
:10073800020806EA0A0601EA0B018AEA0B021540DA
:100748008AEA3A42104045408BEA3B4003405E400B
:100758004240174079404D404E40E443F64386EA14
:1007680018435D4085EA054083EA134386EA03415E
:1007780083EA384284EA114383EA04435FEA334355
:10078800BEF1010E3FF6F2AE1ED4BCE8F0006040A8
:10079800694072407B4020BCFFF784FE2860696096
:1007A800AA60EB60BDE8F08F2DE9E0414FF2F0025E
:1007B80080EA1031114080EA01304840410882083F
:1007C800C3084FF0000E4FE700F0113001F011316F
:1007D80002F0113203F0113340EA410040EA82008E
:1007E80040EAC3004FF2F00280EA1031114080EA7B
:1007F80001304840BDE8E0812DE9F04F02F11C05C9
:100808000646074600EB850851F8040B043A46F8FB
:10081800040BF9D14FF0010CFFF7C6FF5FEA302057
:1008280080EA0C001ECF41404A4053405C401EC63F
:100838002000464517D04FEA4C0C1CF4807F18BFA7
:10084800ACF1E50C2C2DE7D03C2D06D1FFF7ACFF21
:1008580006CF41404A4006C6100006CF41404A40F4
:1008680006C61000D8E736E90F00FFF7C5FD043DBE
:1008780086E80F00F7D1BDE8F08F00BF2DE9F0073B
:1008880091E8F807B2E802105B1854EB0C04B2E8E0
:1008980002104D4156EB0C06B2E802104F4158EBDE
:1008A8000C08B2E8021059EB01095AEB0C0A80E86F
:1008B800F80780410130BDE8F00770472DE9F007DF
:1008C80091E8F807B2E802105B1A74EB0C04B2E87E
:1008D80002108D4176EB0C06B2E802108F4178EBDE
:1008E8000C08B2E8021079EB01097AEB0C0A80E8EF
:1008F800F80780414042BDE8F00770472DE9F0074E
:10090800524290E87800B1E880071740DB1918EAEE
:10091800020854EB080419EA020955EB09051AEA1A
:10092800020A56EB0A0678C090E87800B1E880071A
:1009380017407B4118EA020854EB080419EA020937
:1009480055EB09051AEA020A56EB0A0678C08041F7
:100958000130BDE8F00770472DE9F007524290E8F2
:100968007800B1E880071740DB1B18EA020874EB2F
:10097800080419EA020975EB09051AEA020A76EB76
:100988000A0678C090E87800B1E880071740BB41B4
:1009980018EA020874EB080419EA020975EB09055C
:1009A8001AEA020A76EB0A0678C080414042BDE89E
:1009B800F00770472DE9F00152424FF0040890E823
:1009C800300091E8C000A31B1340E41AF618EB1B93
:1009D8001340ED1AFF1830C0C0C1B8F10108EED1BC
:1009E800BDE8F001704700BF00B592EC080AB1E815
:1009F800805707EE101A53EC102A56EC114AA7FB41
:100A08000251A8FB020BE7FB6310E9FB62B041EC63
:100A1800145AA8FB0351EAFB6201E7FB64B5E7FB44
:100A28006605E8FB661505EE10BAA9FB03B6EAFBF6
:100A38006316ECFB6356E8FB640BE9FB641BEAFBFB
:100A4800645BECFB646B05EE900AACFB023012EEC3
:100A5800104AEEFB6250E9FB6460EAFB64B0E7FB16
:100A68006431E8FB645112EE904AE8FB6461E9FBEB
:100A780064B1EAFB640106EE103AA7FB043213EEF8
:100A8800104AE7FB6462E8FB64B2E9FB6402EAFB34
:100A9800641211EE904AE9FB6453EAFB646313EEB7
:100AA800904AE7FB64B3E8FB6403E9FB6413EAFBE1
:100AB800642306EE905A17EE109A99E8000610EE95
:100AC800108AA9FB0854EAFB68B412EE108AECFB02
:100AD8006804EEFB6814E9FB6824EAFB683410EE4E
:100AE800908AEEFB6865E9FB68B5EAFB680512EEDB
:100AF800908AECFB6815EEFB6825E9FB6835EAFB94
:100B0800684507EE106A11EE108AAEFB0876E9FB1D
:100B18006806EAFB681613EE108AECFB6826EEFB03
:100B28006836E9FB6846EAFB685611EE908AECFBEA
:100B380068B7EEFB6807E9FB6817EAFB682713EE5E
:100B4800908AECFB6837EEFB6847E9FB6857EAFBDD
:100B5800686700BD2DE9F04F07EE900AFFF744FFE4
:100B680017EE908A07EE90BAA8EC084A88E8FF00CA
:100B7800BDE8F08F00B591E89857A3FB0352A3FB9B
:100B88000401E3FB6420E3FB671042EC145AA3FB67
:100B98000752E3FB6802E4FB6415E3FB6805E3FB2B
:100BA8006925A4FB07B6E3FB6926E3FB6A56E4FB69
:100BB800670BE4FB682BE3FB6A5BE3FB6C6B40ECC5
:100BC800151AA4FB0810E4FB6950E3FB6C60E3FB17
:100BD8006EB0E7FB6721E4FB6951E4FB6A61E3FB64
:100BE8006EB1E4FB6E0106EE102AA7FB0832E4FBA7
:100BF8006A62E4FB6CB2E4FB6E02E7FB6E12E7FB91
:100C08006853E7FB6963E4FB6CB3E7FB6C03E7FB42
:100C18006E13E8FB6E2306EE905AA7FB0954E7FB18
:100C28006AB4E7FB6C04E8FB6C14E8FB6E24E9FB90
:100C38006E34E8FB6865E7FB6AB5E8FB6A05E8FB24
:100C48006C15E9FB6C25E9FB6E35EAFB6E4507EE92
:100C5800106AA8FB0976E8FB6A06E9FB6A16E9FB55
:100C68006C26EAFB6C36EAFB6E46ECFB6E56E8FB3C
:100C780069B7E9FB6907E9FB6A17EAFB6A27EAFB38
:100C88006C37ECFB6C47ECFB6E57EEFB6E6700BDF8
:100C98002DE9F04F07EE900AFFF76CFF17EE908AE8
:100CA80007EE90BAA8EC084A88E8FF00BDE8F08F84
:100CB80030B44FF0000310F8014B11F8015B013A12
:100CC80084EA050443EA0403F5D1A3F101034FEADA
:100CD800D37030BC704700BF4FF0000310F8012BF1
:100CE800013943EA0203F9D1A3F101034FEAD370B2
:100CF800704700BF30B411F8014B12F8015B6C402B
:100D080000F8014B013BF6D130BC70472DE9F04F9C
:100D180090E8F00F00F140004FF0040E59E0F0B4F5
:100D2800826BC36B04680525242687593C444FEA27
:100D3800724787EAF24787EA92273C4442684FEABB
:100D4800F21787EAB24787EAD2073C4440F8044BD7
:100D5800032D08BF6FF01B0687593A444FEA7347C3
:100D680087EAF34787EA93273A4443684FEAF31739
:100D780087EAB34787EAD3073A4440F8042B8759F0
:100D88003B444FEA744787EAF44787EA94273B4491
:100D980044684FEAF41787EAB44787EAD4073B4424
:100DA80040F8043B013DC0D1A0F13C00076A3C4437
:100DB8004FEA724787EAF24787EA92273C4402687B
:100DC8004FEAF21787EAB24787EAD2073C44C4637E
:100DD800F0BC4FF0020288EA781C8CEAF84C0BEB66
:100DE800BC1C8AEA090303EA080383EA0A039C4451
:100DF80050F8043B9C4451F8043B9C44674444EA43
:100E0800050B0BEA060B04EA05034BEA030BE34464
:100E180084EAF42383EA34530BEBB30B87EA771C99
:100E28008CEAF74C0AEBBC1C89EA080303EA0703BF
:100E380083EA09039C4450F8043B9C4451F8043B62
:100E48009C4466444BEA040A0AEA050A0BEA0403CE
:100E58004AEA030AE2448BEAFB2383EA3B530AEBA0
:100E6800B30A86EA761C8CEAF64C09EBBC1C88EAC5
:100E7800070303EA060383EA08039C4450F8043B8B
:100E88009C4451F8043B9C4465444AEA0B0909EA2E
:100E980004090AEA0B0349EA0309E1448AEAFA2346
:100EA80083EA3A5309EBB30985EA751C8CEAF54CD9
:100EB80008EBBC1C87EA060303EA050383EA070379
:100EC8009C4450F8043B9C4451F8043B9C446444C3
:100ED80049EA0A0808EA0B0809EA0A0348EA030883
:100EE800E04489EAF92383EA395308EBB30884EA32
:100EF800741C8CEAF44C07EBBC1C86EA050303EA75
:100F0800040383EA06039C4450F8043B9C4451F8CC
:100F1800043B9C44E34448EA090707EA0A0708EA4D
:100F2800090347EA0307674488EAF82383EA385342
:100F380007EBB3078BEA7B1C8CEAFB4C06EBBC1C6B
:100F480085EA040303EA0B0383EA05039C4450F88B
:100F5800043B9C4451F8043B9C44E24447EA08069D
:100F680006EA090607EA080346EA0306664487EA2A
:100F7800F72383EA375306EBB3068AEA7A1C8CEA2E
:100F8800FA4C05EBBC1C84EA0B0303EA0A0383EA68
:100F980004039C4450F8043B9C4451F8043B9C4493
:100FA800E14446EA070505EA080506EA070345EAB3
:100FB8000305654486EAF62383EA365305EBB30551
:100FC80089EA791C8CEAF94C04EBBC1C8BEA0A030D
:100FD80003EA090383EA0B039C4450F8043B9C444E
:100FE80051F8043B9C44E04445EA060404EA07043B
:100FF80005EA060344EA0304644485EAF52383EA20
:10100800355304EBB304013A7FF4E5AEA0F1400098
:10101800BEF1010E7FF483AEA0F1400C9CE80F00F6
:10102800001949199219DB19ACE80F009CE80F0068
:101038004044494452445B44ACE80F00BDE8F08F9B
:101048002DE9F00791E8F807B2E802105B1854EBB5
:101058000C04B2E802104D4156EB0C06B2E802103F
:101068004F4158EB0C08B2E8021059EB01095AEB52
:101078000C0A8941B3F1FF3374F1FF3475F1FF3580
:1010880076F1000677F1000778F1000879F1010997
:101098007AF1FF3A51F100015B184C414D4156F18C
:1010A800000657F1000758F1000859EBD1795AEBBF
:1010B800010A80E8F807BDE8F00770472DE9F00756
:1010C80091E8F807B2E802105B1A74EB0C04B2E876
:1010D80002108D4176EB0C06B2E802108F4178EBD6
:1010E8000C08B2E8021079EB01097AEB0C0A894185
:1010F8005B184C414D4156F1000657F1000758F175
:10110800000859EBD1795AEB010A80E8F807BDE8E5
:10111800F007704718EB040859EB05095AEB060A63
:101128005BEB070B5FF0000C4CF1000C18EB0508AB
:1011380059EB06095AEB070A5BEB070B50EB0C005F
:101148005FF0000C51EB0C0152EB0C0263414CF1C7
:10115800000CB8EB070879F100097AF1000A7BEB7B
:10116800040BA841B141A241B3416CF1000CBBEBA7
:10117800050BB041B941AA41BB416CF1000C4CF0E0
:1011880001068CF0020718EB060859EB6C095AEBBC
:101198006C0A7BEB6C0B70EB6C0471EB6C0572EBFF
:1011A800670653EB6C076CEB6C0C18EB0C0059EBF7
:1011B8000C015AEB0C025BF1000354F1000455F1E9
:1011C800000556EBDC7657EB0C0770472DE9F04F1E
:1011D80007EE900AFFF708FC59EC168A17EE10AADA
:1011E800FFF798FF59EC148A5BEC15AAFFF792FFFA
:1011F80017EE908A88E8FF00BDE8F08F2DE9F04FE0
:1012080007EE900AFFF7B6FC59EC168A17EE10AAFB
:10121800FFF780FF59EC148A5BEC15AAFFF77AFFF9
:1012280017EE908A88E8FF00BDE8F08F7BB972B9A5
:101238000029BEBF00204FF0004106E008BF00288B
:101248001CBF6FF000414FF0FF3000F057B8ADF110
:10125800080C6DE904CE002909DB002B1ADB00F02D
:10126800AEF8DDF804E0DDE9022304B0704740423F
:1012780061EB4101002B1BDB00F0A1F8DDF804E075
:10128800DDE9022304B0404261EB4101524263EBC5
:1012980043037047524263EB430300F090F8DDF8D4
:1012A80004E0DDE9022304B0404261EB41017047EC
:1012B800524263EB430300F082F8DDF804E0DDE915
:1012C800022304B0524263EB4303704753B94AB94F
:1012D800002908BF00281CBF4FF0FF314FF0FF3036
:1012E80000F00CB8ADF1080C6DE904CE00F067F819
:1012F800DDF804E0DDE9022304B07047704700BF61
:1013080070B4840746D04C1E002941D0D5B203469C
:1013180002E0611EE4B30C4603F8015B9907F8D1BB
:10132800032C2ED9D5B245EA05250F2C45EA0545EB
:1013380019D9264603F11001103E0F2E41F8105C12
:1013480041F80C5C41F8085C41F8045C01F11001BB
:10135800F2D8A4F1100121F00F0104F00F041031AC
:10136800032C0B440DD91E4621460439032946F89F
:10137800045BFAD8211F21F0030104310B4404F067
:1013880003042CB1D2B21C4403F8012BA342FBD1B5
:1013980070BC70470C460346C2E710F8012B11F8E1
:1013A800013B012A28BF9A42F7D0D01A704703465A
:1013B80013F8012B002AFBD1181A013870472DE9C0
:1013C800F04786468C460846089E154674461946D8
:1013D800002B40F0C1808542B2FA82F245D94AB169
:1013E800C2F1200300FA02FC954094402EFA03F360
:1013F80043EA0C0C4FEA154EA8B2230CBCFBFEF8CE
:101408000EFB18CC08FB00F943EA0C43994528D990
:10141800EB1808F1FF3704D2994502D9A8F1020761
:101428002B44A3EB0903A4B2B3FBFEFC0EFB1C3355
:101438000CFB00F044EA0344A04214D92C190CF127
:10144800FF3304D2A04202D9ACF102032C44241A7F
:1014580043EA07401EB1D440002334607360BDE8FE
:10146800F0874746DDE76346F1E792BB431B01215E
:101478004FEA154EAFB2200CB3FBFEFC0EFB1C333B
:101488000CFB07F840EA0343984561D9EB180CF1C7
:10149800FF3004D2984502D9ACF102002B44A3EBEB
:1014A8000803A4B2B3FBFEFC0EFB1C330CFB07F7CE
:1014B80044EA0344A7424DD92C190CF1FF3304D256
:1014C800A74202D9ACF102032C44E41B43EA0040D2
:1014D800C0E7C2F120039540944020FA03F12EFAA8
:1014E80003F34FEA154E9040AFB20343B1FBFEFC45
:1014F8000EFB1C10190C0CFB07F841EA004188454B
:1015080022D969180CF1FF3004D2884502D9ACF110
:1015180002002944A1EB08019BB2B1FBFEFC0EFBC3
:101528001C110CFB07F743EA01439F420ED9EB1845
:101538000CF1FF3104D29F4202D9ACF102012B44D5
:10154800DB1B41EA004193E76046E3E76146F7E7C2
:101558006046A4E76346B8E7834206D916B9002176
:1015680008467CE7C6E900E0F9E7B3FA83F78FB9E4
:10157800834201D3724508D8BEEB020460EB030333
:1015880001209C461EB9002169E73846FAE7C6E9FA
:10159800004CF8E7C7F1200CBB400EFA07F522FA19
:1015A8000CF42EFA0CF1BA401C4320FA0CF3B840A4
:1015B8004FEA144901431FFA84FEB3FBF9F809FB0B
:1015C80018300B0C08FB0EFA43EA00439A4540D941
:1015D800E31808F1FF3004D29A4502D9A8F10200B5
:1015E8002344A3EB0A0389B2B3FBF9F809FB1833C8
:1015F80008FB0EFE41EA03418E452CD9611808F11B
:10160800FF3304D28E4502D9A8F10203214443EAEC
:101618000040A1EB0E01A0FB02984145CE4643468F
:1016280002D306D14D4504D20138B9EB020E68EB5E
:101638000403002EA7D0B5EB0E0261EB030101FAFB
:101648000CFC22FA07F3F9404CEA0303C6E900311F
:1016580099E74046C5E74346D9E700000000000087
:101668002DE9F04F2DED028B00249FED498BADF64F
:101678008C3D494E06944FF0FF324FF0FF33012165
:1016880046480DF581651FF0C1FC0027A946DFF823
:1016980024B1DFF81CA10DF120088DED008B5A460E
:1016A8004146504646F060FF38B1002383F3118865
:1016B800BFF36F8F0323184602DF58F8041B284630
:1016C800DBF80020039101374BF05BFC504603998F
:1016D80046F05AFF0A2F05F1C005DED1337B002BF7
:1016E80035D02F4B1B6813B32E4A4FF470710092FC
:1016F80012A82D4A46F00AFE38B1002383F3118858
:10170800BFF36F8F0323184602DF07AB0093102245
:101718004B464FF4707112A846F060FE38B10023B2
:1017280083F31188BFF36F8F0323184602DF4FF44A
:10173800F06148461D4A06AB01F08CFD38B1002324
:1017480083F31188BFF36F8F0323184602DFB4F5C4
:101758007A7F19D1164805AA04A946F018FF38B1AE
:10176800002383F31188BFF36F8F0323184602DF2A
:101778000024337B002B3FF47EAF0C4B727D06991F
:10178800186801F0A3FA76E70134F2E7AFF30080B6
:10179800FFFFFFFFFFFFFFFF9C49002070030020B1
:1017A800984900205C49002030D200205849002088
:1017B8008403002060490020012070B5124A1349B3
:1017C800D2F80435013BC2F844350860D2F84445E4
:1017D8009C42FBD007260E4B0E48D3F84455A4FB79
:1017E80000010D4B0D4A1B6806FB041102FB035553
:1017F80003A3D3E90023FFF769FD284470BD00BFA8
:1018080000CA9A3B000000000040015000B001509F
:10181800000001508D49FD1A8C9A00200080841E1A
:101828002DE9F04F824617461C4600259FB00391CC
:10183800387810B9284600F0A9BD252809D00399A1
:10184800D0470028C0F2A2857B1C01350593059F6F
:10185800EEE71822002110A84BF0BAFB7B78252B65
:1018680000F0BC80002398469E469C461846791C8A
:101878000E4611F8012B2B2A00F0E38000F2DA80E3
:10188800202A00F0E180232A00F0E1802BB19DF8A6
:10189800483043F040038DF84830B8F1000F05D0C8
:1018A8009DF8483043F020038DF84830BEF1000F12
:1018B80005D09DF8483043F010038DF84830BCF14E
:1018C800000F05D09DF8483043F008038DF84830E4
:1018D80028B19DF8483043F004038DF848309DF84E
:1018E800483003F04401442903D16FF386138DF87F
:1018F80048309DF848302A2A43F080030E968DF828
:10190800483040F0A9809DF8493043F001038DF834
:101918004930731C1A782E2A0CBF012100219DF82A
:10192800492061F341028DF849200CD15A1C0E92CE
:101938005A782A2A40F0A0809DF84920023342F0C4
:1019480004028DF849201A786C2A00F0C18000F250
:10195800A380682A00F0A9806A2A00F0C2804C2A75
:1019680000F0C78013F8012B782A05938DF84B20D7
:1019780000F209816D2A00F2C980692A00F2038108
:10198800572A00F2E280412A04D0A2F14503022B33
:1019980000F2F98004219DF84A3002F0DF02A2F13A
:1019A800410961F30203D9F100029DF8491042EBA5
:1019B800090262F3C7110A068DF84A308DF84910FA
:1019C800CBB200F11F8103F07802182A40F0098198
:1019D8006FF3C6038DF849300023F8E08DF84B30DB
:1019E800BB1C05939DF849309DF84A20DE0702F09C
:1019F800070040F1098154F8041B0029049108DA12
:101A08009DF8481041F004018DF8481004994942A6
:101A18000491590740F1008154F8046B002E80F2BC
:101A2800FF809DF849306FF341038DF849304FF03E
:101A3800FF36F5E02D2A0DD0302A7FF427AF012399
:101A480016E74FF0010C13E74FF0010E10E74FF0C7
:101A580001080DE701200BE70EA804F027FC0E9BF8
:101A6800B3423FF457AF9DF848201390C00F60F37E
:101A780041028DF848204DE70EA804F017FC9DF8A8
:101A880048301490C3F3400242EAD07262F3410333
:101A98008DF848300E9B56E7742A26D07A2A7FF4B0
:101AA80061AF06219DF849200CE05A78682A9DF814
:101AB800492006D1012161F3C6028DF8492002337D
:101AC80050E7022161F3C6028DF84920013349E746
:101AD8005A786C2A9DF8492001D10421EBE70321AB
:101AE800F0E705219DF84920ECE707219DF84920FA
:101AF800E8E7BDF8482022F4F04222F0020242F45E
:101B0800804242F00202ADF84820DFE76E3AD3B2D5
:101B180001229A4040F282431A429DF8493039D155
:101B280012F0240F61D1D1072DD503219DF84A2049
:101B380003F07803A3F1400861F30202D8F100032F
:101B48008DF84A2043EB080341E00120A2F1580137
:101B5800C9B200FA01F111F4624F7FF41BAF40F6ED
:101B6800010319429DF849301AD111F4043F0AD0F3
:101B78009DF84A2060F3020203F07803402B8DF8A9
:101B88004A207FF429AF9DF8483043F001038DF8CF
:101B9800483021E702219DF84A2061F30202EBE771
:101BA80002209DF84A1003F0780360F30201402BED
:101BB8008DF84A1002BF9DF8481041F001018DF8D8
:101BC8004810632A7FF408AF003B18BF01239DF833
:101BD8004820C2F340010B4363F341028DF84820CB
:101BE80000E713F0380FCED1F6E603219DF84A201E
:101BF80013F0780F61F3020214BF012300238DF85C
:101C08004A20E4E70123E2E79DF948100029ACBF28
:101C18004FF0FF311399FBE69E077FF508AF149E3E
:101C280000230428CDE913339DF8493007D19907DB
:101C380005D49DF949100029ACBF06260D2602F0EF
:101C48000702012AC3F3C30332D1DA1E042A04D8D7
:101C5800DFE802F02045452020002268012B4FEAEA
:101C6800E271CDE910211BD19DF94020D117CDE9B2
:101C7800102104349DF84820069292074FD03A4626
:101C88005046059B03993CF02BFA0028C0F27E834E
:101C98000544DCE554F8042BD117CDE91021E9E718
:101CA800022BE6D111B242F3C032CDE91012E0E7BF
:101CB800022A24D1DA1E042A04D8DFE802F0181018
:101CC80010181800012B4FF0000154F8042B14D001
:101CD800022BCDE91021CDD192B21092CAE7073478
:101CE80024F00704F4E80201CDE91001C2E754F832
:101CF800042B109200221192BCE7D2B2CDE7042A3D
:101D080008D1073424F00704D4E900010834CDE9E8
:101D18001001AFE7032AADD154F8042BDDE79DF895
:101D28004B80B8F1780F3FF692ADB8F1570F5CD8F9
:101D3800B8F1250F00F0A480B8F1240F7FF687AD25
:101D4800B8F1410F04D0A8F14503022B3FF67FAD4F
:101D5800DDE91023002BC0F24D810699080700F138
:101D68004C81C1F300194FEA4919C3F30A51C3F36F
:101D78001303002940F0448152EA030014BF4FF0D6
:101D8800010C4FF0000CD80240EA5250D702CDE9BE
:101D98000C70B8F1460F47EA010740EAE17008BF46
:101DA8004FF06608384300F0B781BCF1000F10D03F
:101DB8001B0343EA125317033A4618464FF0000C28
:101DC800002880F25681BCF1000F40F05981CDE91E
:101DD8000C730D9BA1F2FE3B43F000430D930021D1
:101DE800DDE90C230F46052060E1A8F15802202AFE
:101DF8003FF62DAD01A151F822F000BFCF1F000022
:101E0800571800005718000057180000571800000E
:101E180057180000571800005718000057180000FE
:101E2800591D0000571800007B1F00008F1F00007D
:101E3800591D0000591D0000591D000057180000C9
:101E48008F1F00005718000057180000571800008F
:101E580057180000D51F0000CF1F00001F1F0000EB
:101E68005718000057180000991E00005718000066
:101E7800CF1F00005718000057180000CF1F0000A0
:101E880040460399D0470028C0F280820135DEE43D
:101E9800002E109F3BDB314638464BF085F9002F6A
:101EA8003FF4D5AC4FF000093E18F31B9DF84A20CB
:101EB80012F01001069100F05E82023312F0400227
:101EC800DDF84C80089218BF149A434418BF9B1839
:101ED800049ACDF81C80002A40F36882D31A9DF832
:101EE800482004935007C2F3800B00F15F8251062B
:101EF80040F14F82B9F1000F07D048460399D04707
:101F08000028C0F24382D9460135302242E23846E1
:101F1800FFF74DFAC6E71098002800F027820DF168
:101F280075030093002117AB12AA04F0D5F94FF0FE
:101F380000090746BDF84A3003F0EF0343F4F043C5
:101F480043F01003ADF84A30002E0CDB9DF8482012
:101F58000DF17503DB1B6FF386129E428DF8482046
:101F680001D9F31A1393002F3FF471AC0DF17506E4
:101F78006DE0109B4FF000098DF85C300DF15D06A7
:101F8800012317AF92E7069B1F0754BFC3F300193D
:101F98004FF02B09DDE9102358BF4FEA4919002BF0
:101FA80006DA4FF02D09524263EB4303CDE91023C3
:101FB800DDE910010DF17503009312AA17AB04F0C7
:101FC8008BF90746C0E74FF00009F1E7109A072B95
:101FD8003FF63DACDFE803F00C04060C08080C0CD7
:101FE800157034E4158032E4EB17C2E900532EE48F
:101FF80015602CE44FF02D09B7E64FF02B09B4E635
:1020080040F2FF70814231D1A34908F101085FFA1B
:1020180088F811F80810134301F003011ED10129B3
:102028000BBF492369234E216E210CBF462266222D
:102038008DF85C309DF848308DF85D106FF386138D
:102048008DF85E208DF848300DF15F0617AFF31B51
:10205800B9F1000F3FF42AAF013327E7012915BF73
:102068006E234E23612141211A46E1E74FF0000C0F
:1020780089E692184FF0010C01F1FF3140419FE6CB
:10208800CDE90C20A5E6520842EAC3725B08B3F119
:10209800333F59460BF1010BF5D201F1020B012137
:1020A80000FB03FCA2FB0023013F63441BF1020F6A
:1020B800E9DB09B1CDE90C23DDE90C32BBF1000FF6
:1020C8002DDCCBF10401A1F120000BF11C0B02FA6D
:1020D8000BFB22FA00F0CA40CB40079208F0DF025F
:1020E80043EA0B03472A43EA00037BD1F91C01DBCF
:1020F800BE422ADAA8F10208002E5FFA88F87ADDD3
:102108009DF84820013E920675D4B6F1000B18BF21
:102118004FF0010B721C26E04FF0000B5FE6023314
:1021280042F100020CA80BF1FF3B0137CDE90C325C
:102138003BF0A7FFDDE90C32DB185241002A0BF116
:10214800FF3BF9DACDE90C32B6E79DF84820F61BDB
:1021580090064DD4B6F1000B18BF4FF0010BF219E1
:102168004FF066084AD4102AA8BF10229FED487B7A
:1021780010208DED0E7B0B90DDE90E01002A3FD17A
:10218800079A1B1842EB0101B1F1805F47D2CDE9F4
:102198000C31069BB8F1660F03F0200240F0C680B0
:1021A800002F47DC30238DF85C30002A76D1002ED2
:1021B80040F3BD812E238DF85D3087B17B42B34259
:1021C800A8BF3346002B1393A6EB0306D4BF002306
:1021D80001239DF84A2063F345128DF84A200DF13A
:1021E8005E0340E0B8F1660F4FF0000BB7D091E7FF
:1021F8004FF0000BB3E74FF0000B8BE70022B5E779
:10220800400840EAC1704908CDE90E010EA8CDE9A1
:1022180008233BF036FF089A099B013AACE75B08B4
:1022280043EAC1730CA84908CDE90C3101373BF0EA
:1022380028FFAEE717AB0B9900290BDD0BA90CA8FB
:10224800CDE906323BF035FF069B013F079A03F8BC
:10225800010BF0D11397AAB9002E40F366812E2105
:1022680003F8011B0027002E21DD0B9A002A1EDD32
:102278000BA90CA806933BF01CFF069B013E03F834
:10228800010BF0E72E2203F8012BEBE7AFF30080F8
:102298000000000000000008EF7905002E238DF8EB
:1022A8005D30002F9BD0002E88DC0DF15E03BBF162
:1022B800000F4FD114961E4608F0DF03452B24D19A
:1022C800002FBABF7F422D232B23632FC8BF642260
:1022D8007370C4BFB7FBF2F302FB13774FF00A0227
:1022E800C8BF03F13001B7FBF2F3C8BFB17003F107
:1022F800300102FB137386F8008003F13003D4BF6A
:1023080002360336317073700236139B002B2BDCB8
:10231800149B002BD4BF002301239DF84A2063F3AC
:10232800861200238DF84A2033708FE60BA90CA87B
:1023380006923BF0BEFE069A30288DF85C0018BF66
:1023480007F1FF3712B9002E40F3F1802E238DF8E4
:102358005D3044E71E4616F8012C013B302AF9D0BF
:102368002E2A08BF1E46A7E70123D6E7714E8146ED
:102378000523771F9AE5110748BF01339EE51046EC
:1023880009920399D0470028099A05DA1FB0BDE8D9
:10239800F08F2022DDF810B0594600290BF1FF3BE1
:1023A800EDDC049BCDF810B02B445D1AB9F1000F99
:1023B80005D048460399D0470028E7DB0135089B3C
:1023C800002B77D09DF94930002B28DB3B46DFF8FE
:1023D800689118789B4619F80020013352073FD4BA
:1023E8009DF84A30EF1B98065F4407D44246002AFE
:1023F80008F1FF383BDC079B3B449F1A9BF8000021
:102408002E280AD10399D0470028BFDBB8F1000F66
:1024180007F1010731DC0BF1010B5D4638E0B946E5
:1024280099F80000C846702809F1010913D1EF1B7B
:10243800149D47443D44EB1B002B33DC3346424696
:10244800504603993BF04CFE00289FDB3844049E1D
:102458000546064464E00399D0470028E0DA95E78A
:1024680006930399D0470028069BB2DA8EE73020FE
:102478000399D0470028B9DA88E730200399D04774
:1024880008F1FF38C0E70399D0470028FFF67EAF70
:102498002878A84619F8003001355907F3D4A7EB76
:1024A8000B07C5E730200399D0470028FFF66EAF29
:1024B8000137C0E79DF84A30DA0601D41B0706D574
:1024C80030200399D0470028FFF660AF0135069BFE
:1024D8003BB103999DF84B00D0470028FFF656AF53
:1024E8000135A84406E030200399D0470028FFF6BC
:1024F8004DAF0135A8EB0503002BF4DC33463A4613
:10250800504603993BF0ECFD0028FFF63FAF284406
:102518009DE720200399D0470028FFF637AF013503
:10252800731B002BF5DCFFF792B91746BFE60DF1D8
:102538005D03BCE63A680500F0790500000000007C
:10254800F7B5002240F60340114608F025FE044680
:10255800002840F0928008F0D7FA214641F20300A3
:1025680001AA08F019FE0446002840F08680019A66
:10257800434DD16805F12C03D1F80100D1F80510BD
:1025880003C3104606F0D8FF214641F2010001AA14
:1025980008F002FE044600286FD10198C3685A78F3
:1025A80085F824205A88EA841A7985F82520B3F812
:1025B80007202A85B3F805306B8506F0BDFF214654
:1025C80041F2020001AA08F0E7FD0446002854D1B0
:1025D800019F05F13406FA68531C413234461868E5
:1025E8005968083303C493422646F7D1384606F0A3
:1025F800A3FF3EF0C2FA044600283ED195F83E30CB
:102608009E0634D5072140F6334008F0C9FB06463C
:10261800002800F0688107210C303DF030F96FF098
:102628000903012703700323C0F802408471047171
:1026380022464770C370314640F6334008F0ACFD7F
:102648000446D0B9394640F6314008F0A9FB0646A1
:10265800002800F0488139460C303DF01FF9224629
:10266800314640F6314008F097FD044628B995F800
:102678003030580606D46FF01204204603B0F0BD7F
:10268800000000206A46002142F2030008F084FDA1
:1026980004460028F1D1009BA44EDA68D2F8010064
:1026A800D2F8051003C6184606F046FF95F8933091
:1026B8000F2B40F22981022142F2740008F070FBCE
:1026C8000746002800F00F8102210C303DF0D7F8B2
:1026D80020230370012322464370394642F27400D6
:1026E80008F05AFD04460028C7D195F85D1001AAE4
:1026F80011F0200100F0FA80014642F2600008F073
:102708004BFD04460028B8D1019FFC68B4F801309D
:102718009AB24AB1E2783AB1A5F8BC30E27806F14B
:10272800280011463DF030FFA3889AB25AB1A27929
:102738004AB1A5F8D830A2797D4811463DF024FF6A
:10274800A37985F8DA30384606F0F6FE95F8306059
:1027580016F0200619D1022140F66D4008F020FB42
:102768000446002800F0BF8002210C303DF087F8B5
:102778000123214603704670324640F66D4008F04A
:102788000BFD044600287FF478AF95F85030190700
:1027980013D56A46002142F21C0008F0FDFC0446ED
:1027A80000287FF46AAF0098C368D3F80120D3F8F3
:1027B8000530C5E9262306F0BFFE95F890305A0685
:1027C8002AD5022142F22E0008F0EAFA044600282F
:1027D80000F0898002210C303DF051F8B5F88031C5
:1027E80021460380002242F22E0008F0D5FC044660
:1027F80000287FF442AF01466A4642F22A0008F0F8
:10280800CBFC044600287FF438AF0098C3685B7897
:1028180085F8F43006F090FE082142F2010008F035
:10282800BFFA044600285ED008210C303DF027F896
:1028380095F890603F4B16F0020F02463E4808BFDD
:102848001846B30695F8913048BF40F0400013F0A1
:10285800090F95F8933018BF40F40060F70748BF98
:1028680040F0100013F0300F4FF0000107D04FF484
:1028780000719E0654BF40F0807040F040703DF0FB
:102888008DFE2146002242F2010008F085FC044634
:1028980000287FF4F2AE95F83030B5F8BC109806F1
:1028A8003ED4C9B941F2050001AA08F075FC0446F6
:1028B80000287FF4E2AEB5F8BC30019C4BB9E36860
:1028C8001E48B3F80120A5F8BC209A8811463DF0AF
:1028D8005BFE204606F030FE082140F6014008F075
:1028E8005FFA044660BB6FF06804C6E642F2020075
:1028F80008F052FC044600287FF4BFAE019C204635
:1029080008F0AAF920461FE721466A4642F202006B
:1029180008F042FC044600287FF4AFAE009CEEE7C6
:102928000029D9D16FF00404A7E600BF9000002069
:10293800DC0000200E1207002E120700C000002045
:1029480008210C303CF09BFF95F890300246D907DF
:1029580047BF31A1D1E900014FF000512C483DF0AB
:102968001DFE2146002240F6014008F015FC0446F1
:1029780000287FF482AE014601AA4FF6014008F014
:102988000BFC044620BB019806F0D6FD21464FF605
:10299800024001AA08F000FC0446C8B90198C368BF
:1029A800B3F80130A5F8753006F0C6FD95F8753016
:1029B8005B070DD521464FF6034001AA08F0ECFB52
:1029C80030B90198C3685B7885F8743006F0B4FDB7
:1029D80009F0C0FB044600287FF44FAE0BF07AFAEA
:1029E800044600287FF449AE0AF0A8FB04460028F4
:1029F8007FF443AEEB79002B3FF43FAE0821054846
:102A08003DF00BFD08F08CFA37E600BFAFF300800D
:102A180010880002880000209088000200800020B2
:102A280013B5184C4FF0FF324FF0FF33204601A981
:102A380044F0D9FA38B1002383F31188BFF36F8FBC
:102A48000323184602DF40F6CD4200236946019869
:102A580044F0ACFA38B1002383F31188BFF36F8FC9
:102A68000323184602DF9DF80030012B05D0022B06
:102A7800D8D1002002F010FED4E7002002F0A4FD17
:102A8800D0E700BFB8DC0400F0B54FF0FF364FF0D8
:102A9800FF375F4D97B0CDE900675E4808AA05A9E2
:102AA80044F0A4FA38B1002383F31188BFF36F8F81
:102AB8000323184602DF9DF82030013B072BEAD894
:102AC80001A252F823F000BF5B2B00009F2A0000F0
:102AD800F12A00001B2B00009F2A00009F2A0000FB
:102AE800512B0000C52B00002B78002BD3D09DF86C
:102AF8002C30012B01D100F007FA002400F0F8FA7D
:102B080002202C7003F02CF90028C4D084F311881B
:102B180014E02B78012BBED09DF82C30012B01D16D
:102B280000F0F8F901232B7000F05CFB022003F0A1
:102B3800F7F80028AFD0002383F31188BFF36F8F15
:102B48000323184602DFA6E7132109983AF0DAFDB5
:102B5800A1E709980EA90BF025F89DF82C3060B173
:102B6800012B10D14FF048124FF4C803099806A959
:102B7800CDE906233EF065FA05E0012B03D1BDF847
:102B88004C30482BEED19DF82C10099804AB03AAC1
:102B980002F022FC044600287FF47DAF9DF82C301B
:102BA800012B05D10246DDE9031000F0EDF9ABE792
:102BB800022B7FF470AF0146049AF6E7002406A8BA
:102BC8008DF818408DF8384000F070FF9DF82D30D2
:102BD80073B10C9801F0AAF90EA801F09FF99DF8BD
:102BE8002D209DF838309A4202D1204601F09EF9F6
:102BF8009DF81830012B3FF64EAF4FF080730093CD
:102C0800002301221946184601F0CAF943E700BF1C
:102C18005C180020C4DC040030B5274D274C85B073
:102C28004FF0FF324FF0FF33284601A944F0DBF99B
:102C380038B1002383F31188BFF36F8F032318463D
:102C480002DF40F6CD420023019802A944F0AEF914
:102C580038B1002383F31188BFF36F8F032318461D
:102C680002DF9DF80C30012B23D1029B023B042B81
:102C7800D6D8DFE803F0110E031A1400207810B933
:102C88003AF08FFDCCE70128CAD100203AF087FD41
:102C9800C6E73AF07AFDC3E73AF079FDC0E7237852
:102CA800002BBDD100F05EF9BAE7002001F0FCF975
:102CB800B6E705B030BD00BFACDC04005C180020EE
:102CC800014B1878704700BF5C180020074B84B090
:102CD800CDE9010118788DF80C2028B904AB13E967
:102CE8000E0004B002F042BD04B070475C1800202A
:102CF800D0B588B003F0E0F938B1002383F3118828
:102D0800BFF36F8F0323184602DF3AF0C8FC38B1CF
:102D1800002383F31188BFF36F8F0323184602DF64
:102D280000F0CCFE38B1002383F31188BFF36F8F16
:102D38000323184602DF00F081FA38B1002383F339
:102D48001188BFF36F8F0323184602DF0026002780
:102D580000230524CDE90133CDE9034300934FF463
:102D68000062CDE90667504B504951481DF064FB9D
:102D780050491DF013FB58BB4FF40062CDE90340E6
:102D8800CDE901000090CDE906674B4B4B494C4813
:102D98001DF052FB4B491DF001FBC8B94FF480628E
:102DA800CDE90340CDE901000090CDE90667464B27
:102DB800464947481DF040FB46491DF0EFFA38B92F
:102DC80041F69A1200234449444813F0AFFF38B142
:102DD800002383F31188BFF36F8F0323184602DFA4
:102DE80041F69A1200233E493E4813F09FFF0028FF
:102DF80051D141F69A1200233B493C4813F096FF03
:102E0800002848D141F69A1200233949394813F06D
:102E18008DFF00283FD141F69A12002336493748E2
:102E280013F084FF00F034FD38B1002383F31188D8
:102E3800BFF36F8F0323184602DF3AF0ACFC38B1BA
:102E4800002383F31188BFF36F8F0323184602DF33
:102E580001F0E2F938B1002383F31188BFF36F8FD3
:102E68000323184602DF0020254902F0D3FC38B1BD
:102E7800002383F31188BFF36F8F0323184602DF03
:102E880000214FF080730122009308461D4B01F08A
:102E980087F808B0D0BD002383F31188BFF36F8F84
:102EA8000323184602DFBDE7212C0000D8F10020DB
:102EB80060220020CA650500912A0000D8E9002098
:102EC80078210020D9650500292A0000D8E50020CE
:102ED80090200020EA650500D0DC040078DC0400BE
:102EE800ACDC04003CDC0400C4DC040064DC04004A
:102EF800A0DC040028DC0400B8DC040050DC04007A
:102F08005937000002660500002101481EF0D6B8B6
:102F1800BC490020014849F0CAB800BFBC4900209C
:102F280010B50E4C10B92060002010BD82B2B7EE6B
:102F3800000A4BF680332146094817F09FFA38B14A
:102F4800002383F31188BFF36F8F0323184602DF32
:102F58002368602BE8D96FF00B00E6E7984900205A
:102F680030D20020074B186830B1B0F57A6F06D21E
:102F780040001860FFF7D4BF4FF47A70F9E70020DB
:102F8800F7E700BF94490020B0F57A5F0BD045F60B
:102F9800C053984207D04BF68033984203D020B1F3
:102FA8006FF0150070470E4B9861B2F57A5F0CD040
:102FB80045F6C0539A4208D04BF680339A4204D063
:102FC800002AEDD131B9002070470120044B187157
:102FD8009A60F7E70122024B1A731961F3E700BF01
:102FE8009C4900202DE9F04F3C4B05461B7F0E46BF
:102FF800174687B0002B6DD0394803AA02A945F0BF
:10300800C6FA002845D1039BC3F11E03DBB2092B86
:1030180042D9344C4FF00008A146DFF8C4A04FF065
:10302800FF324FF0FF334946504645F07FFA80BBE8
:1030380008F10108B8F10A0F09F10409EFD105AB4D
:1030480000933A4631462846274B00F0D5F900BB95
:103058000546254E224F3168C0222944206849F090
:1030680090FFC0222146384645F063FA88B9C0353A
:10307800B5F5F06F04F10404EDD11C4C2368B3F5E9
:103088007A7F24D1164803AA02A945F080FA00B92C
:10309800206007B0BDE8F08F80464FF0000A4FF07F
:1030A800000BDFF83C90C3F10A044846CDE900ABB9
:1030B80005AA04A945F058FA2330AAD0484604992D
:1030C80008F1010845F060FAA045EED1A1E7013307
:1030D8002360DEE74FF0FF30DBE700BF9C490020AC
:1030E800E40300206C49002068490020644900205E
:1030F800012370B5324C3348237040F2022390F814
:103108005C60254688B0A3824EB945F084FA30B198
:1031180086F31188BFF36F8F0323184602DF2A480E
:1031280090F85C604EB945F076FA30B186F31188B4
:10313800BFF36F8F0323184602DF244B0FCB8DE8B4
:103148000F0095E80F0000F081FA38B1002383F3EF
:103158001188BFF36F8F0323184602DF01232377FB
:10316800237BF3B11A4E3468DCB90022002303250F
:10317800CDE90623CDE9024542F6F822CDE900441F
:10318800144B1549049415481DF056F9306014493C
:103198001DF004F928B184F31188BFF36F8F284616
:1031A80002DF0949074802F0EDFB38B1002383F339
:1031B8001188BFF36F8F0323184602DF08B070BD74
:1031C8009C490020E403002084030020AC4900202F
:1031D800CC49002069160000D8F9002048230020B7
:1031E8001566050030B5124C85B0237FF3B102F0A7
:1031F800D5FB04F110030FCB8DE80F0094E80F0006
:1032080000F0F2F938B1002383F31188BFF36F8F10
:103218000323184602DF00230648237745F0CDF93B
:10322800054805B0BDE8304045F0C7B905B030BD28
:103238009C49002084030020E403002010B502F01C
:10324800B7FB044610B9024848F02CFF204610BDD1
:10325800BC4900202DE9F04FADF6447D06AFC7E923
:10326800023204464FF4F0620D46DFF888910021DF
:1032780007F1280049F0ACFE4FF4F062002107F591
:10328800F56049F0A5FE99F80C30002B00F0A780F6
:1032980099F80030012B40F0A58099F81430C7F850
:1032A80010D09B00073303F4FF63ADEB030D07F168
:1032B800200A07F57A732046009310222946CDF894
:1032C80004A007F1280345F0F6F80DF118080446A4
:1032D80088B906464BF6803B07F5F5657D6107F131
:1032E800280299F81430B34209DC012B32D0022BA2
:1032F8004FD06FF012000446D7F810D043E0D9F849
:103308001810DAF8003059450AD148F826207B62AF
:103318007B69013603F570737B6102F57072E0E733
:10332800049107F1240103914FF470714FF4066082
:10333800029179692D4DCDE900B100FB06500221BB
:103348007A6017F001F90028D5D17B697A6848F8C6
:103358002630DDE707F11E030293254B01934FF456
:103368009B7300930023796A1A46D8F8000005F089
:103378000BF90028BFD1FA681D4B1360FB8BBA68A4
:103388001360D7F810D0204607F62C77BD46BDE865
:10339800F08F4FF49B7300930023154E07F11E0521
:1033A800029501961A46796AD8F8000005F0ECF8FB
:1033B8000028A0D1FB8B02951E44C3F59B739BB2DA
:1033C8000093019602460123796AD8F8040005F0B3
:1033D800DBF800288FD1FB8B5B00FB83CBE76FF01A
:1033E8000504D0E76FF01204CDE700BFD0790020C4
:1033F8005CDA0020908A00202DE9F04FADF6447D7C
:10340800DFF8E0A106AF7B609AF8043005468846ED
:103418007A61002B00F0DB8007F128044FF4F0629A
:103428000021204649F0D4FD4FF4F062002107F551
:10343800F56049F0CDFD00239AF8002007F1200639
:10344800012A07F1240BFB61FA603360CBF80030E6
:1034580040F0C0809AF80510C7F810D08A000732EB
:1034680002F4FF62ADEB020D01290DF1180906D037
:1034780002294FD06FF01200D7F810D030E07A69E7
:103488002846CDE901B200944FF470721FFA88F112
:1034980005F0B8F80028EFD14BF68031DAF80820AB
:1034A800DBF800308A4220D1C9F80040336007F1C8
:1034B8001C039AF807200193484B0093396A10239C
:1034C800D9F8000044F041FF0028D5D10020FA695E
:1034D800D7F8503F1A607A68404B1360D7F810D07D
:1034E80007F62C77BD46BDE8F08FCDE903614FF4B0
:1034F8007071029107F5F561CDE90021384822463F
:10350800022117F021F80028B6D107F5F563C9F8AC
:103518000030CCE74FEA5802BA607A69C8F34F081E
:10352800CDE901B241464FF470722846009405F087
:1035380069F80028A0D128467B694FF47072CDE95C
:1035480001B307F57A730093BD684146FB682844C8
:1035580005F058F800288FD18046A346204C07F57F
:10356800F5659AF8053043450BDC07F11C03019318
:103578001A4B009332681023D9E9000144F065FF23
:10358800A2E74BF68031DAF808207B6A8A4209D133
:1035980049F828B0336008F1010805F570750BF596
:1035A800707BDEE74FF40660CDE903614FF470717C
:1035B8000092CDE901515A46022100FB084016F05D
:1035C800C3FF00287FF458AF49F82850E3E76FF0AD
:1035D800050085E76FF0120082E700BFDCD200200B
:1035E80010690020908A002084B010B502AC84E8ED
:1035F8000F00154C9DF808302278934221D1012BF9
:1036080004D00020BDE8104004B070479DF8143085
:103618004BB1237B13B96FF07700F3E705F022F87D
:103628000028EFD120739DF80C303BB12379002B93
:10363800F1D005F035F80028E4D120710023237774
:10364800DFE76FF01200DDE7908A002084B07FB5D5
:1036580008AC84E80F009DF82030012B13D1234ECD
:103668003378012B11D19DF82C30DBB99DF824302B
:103678005BBB1E4C08AD0FCD0FC495E80F0084E866
:103688000F0001233377002007E0002142F2107277
:1036980008463BF0A9FF0028E5D004B0BDE870401B
:1036A80004B07047337BF3B90DF10E0301939DF815
:1036B800353042F21072009310210C9BBDF838008F
:1036C80005F00CF80028D1D0E7E733795BB942F26E
:1036D800107210219DF82630BDF8280005F050F82A
:1036E8000028C6D0D9E76FF07700D6E7908A002087
:1036F800DFB500234FF0FF364FF0FF37134C02932E
:103708002046CDE9006703AA02A944F02DFF38B18D
:10371800002383F31188BFF36F8F0323184602DF5A
:10372800029890F8FF20D0F8FB10FFF75BFC38B147
:10373800002383F31188BFF36F8F0323184602DF3A
:103748002046029944F020FFDAE700BF4C0400202D
:103758002DE9F0479946002388B00593474B8246E8
:103768001B780D4616469DF8407033B983F31188CF
:10377800BFF36F8F0323184602DFFEF71DF80C23F3
:103788007B433F4C8046E258E1180132E250119BDE
:10379800AB420AD08B6801338B600C2303FB0744D0
:1037A800636801260133636001E0002EF5D1FFF75D
:1037B80087FA30B1334A13680133136008B0BDE8A3
:1037C800F087002FFAD1304804AA03A944F0DFFE9D
:1037D80030B187F31188BFF36F8F0323184602DFD8
:1037E800039B042B19D9294A2748136806A90133D2
:1037F800136000220023CDE9002307AA44F0B4FE99
:1038080038B1002383F31188BFF36F8F0323184661
:1038180002DF06991C4844F0B7FE002200231A482C
:1038280005A944F083FE38B1002383F31188BFF360
:103838006F8F0323184602DFFB2D08D9002383F37B
:103848001188BFF36F8F0323184602DFB6E72A46B5
:103858005146059849F095FB059B4FF484720A4838
:1038680083F8FF60C3F8FB50C3F80091C3F80481E4
:1038780005A944F05EFE0028A0D0DFE792DB002017
:10388800B88A0020B48A00204C040020B08A0020A6
:1038980010B5124C88B02378E3B9114844F0BBFE48
:1038A800B0B900220023CDE906230423CDE90000A6
:1038B800CDE90203049041F6B0520A4B0A490B487D
:1038C8001CF0BAFD0A491CF069FD08B901232370F0
:1038D80008B010BD6FF07700FAE700BF92DB002058
:1038E8004C040020F9360000D024012030240020A8
:1038F8005866050030B5144689B02AB1052109B0CB
:10390800BDE830403DF062BA032502900022002352
:10391800074801A98DF8045043F00DFB28B184F342
:103928001188BFF36F8F284602DF09B030BD00BF92
:1039380028DC040038B1002383F31188BFF36F8FAC
:103948000323184602DF01481CF00ABA401C002075
:1039580070B503788AB004460E4607AD032B20D80D
:10396800DFE803F002191B1D1149284649F0EFFB57
:10397800059563781E210493A37830460393E37872
:103988000C4A02932379019363790093A3793AF05F
:1039980061FB0AB070BD0849E7E70849E5E708494F
:1039A800E3E70A212846074A3AF054FBE0E700BF5C
:1039B80067660500906605006E6605007566050079
:1039C8007F6605008966050010B5044692B03DF093
:1039D8000EFB0AA9FFF7BCFF204609F0BBFC062333
:1039E80000228DF80C301248002303A9049443F0F8
:1039F800A2FA38B1002383F31188BFF36F8F032332
:103A0800184602DF4FF0FF324FF0FF3309481CF031
:103A1800ADF84FF080730093002301221946184631
:103A280000F0BEFA03481CF019F912B010BD00BF2F
:103A380028DC04006C1A002070B5002604460D46E8
:103A480092B031461A220BA80A9649F0C1FA2046CC
:103A58003DF0CDFA0AA9FFF77BFF6DB1204609F0CA
:103A680079FC4FF08073012200933146334630468B
:103A780000F096FA12B070BD022300228DF80C30C7
:103A88000948002303A9049443F055FA30B185F39B
:103A98001188BFF36F8F0323184602DF02212046E7
:103AA8003DF023FAE6E700BF28DC0400024602499D
:103AB800012009F045BD00BFE5D6030070B52248D6
:103AC8008CB007F011FE044630BB40F6CD4200230F
:103AD8001E481CF079F90446F0B93BF00BFC04468B
:103AE800D0B9052004A901F0DBFF0446A0B99DF870
:103AF80010301BB139F002FE044668B9012000F00D
:103B080053F8044640B901A9019008F077F9019BE0
:103B1800012B04D06FF00B0420460CB070BD01A936
:103B280002A808F06BF9264602AD019BB34203D800
:103B3800074809F077FFEFE7284604A9FFF708FFD1
:103B480001360735F1E700BF3D390000401C002071
:103B5800AC0400200149024847F03BBF40900020D8
:103B68001825002013B500240DF106012046ADF8F4
:103B7800064039F0D2FD30B184F31188BFF36F8F5E
:103B88000323184602DF074B186803F08FFA38B191
:103B9800002383F31188BFF36F8F0323184602DFD6
:103BA80002B010BD3C900020002330B585B005461A
:103BB8000DF10E010120ADF80E3039F0AEFD0446CE
:103BC80028BB25B303F048FA20BB224640F6B8309C
:103BD800114903F09DFA114B002818601ADB1048B0
:103BE80047F022FF0F4B4FF4806200930E490223E7
:103BF8000B481CF0BFFA0D490D4847F0BFFE4FF4C3
:103C0800803200230B48CDE900231DF0C5F920467A
:103C180005B030BD0446FAE711D703003C900020F8
:103C280018250020F4040020804201206D3B00008C
:103C380040900020C818002030B505460C4689B0D1
:103C4800A1B1694609F0AEFF80B99DF81C30022B7E
:103C58000CD128460FF014FD054B014610221868B8
:103C680049F07FF910B923780133237009B030BDCA
:103C78005090002070B503788AB004460E4607AD10
:103C8800032B20D8DFE803F002191B1D1149284631
:103C980049F05DFA059563781E210493A3783046B0
:103CA8000393E3780C4A0293237901936379009391
:103CB800A3793AF0CFF90AB070BD0849E7E7084997
:103CC800E5E70849E3E70A212846074A3AF0C2F936
:103CD800E0E700BF67660500906605006E660500B0
:103CE800756605007F6605008966050000B589B020
:103CF8006946FFF7BFFF034A13780133137009B011
:103D08005DF804FB94DB00200023F0B51C4D93B054
:103D18000E4601462868039340F0EDFC68B3304630
:103D280039F017FD044628BB2860164808F0C0FE85
:103D3800154B164D1C7006AF08F084FE30460AA9D4
:103D4800FFF798FF95E80F0087E80F002869696971
:103D580004AB03C304AA3946304603AB09F090FF0D
:103D680040B14FF08073012200932146234620463C
:103D780000F016F9002013B0F0BD0120FBE700BFEA
:103D8800509000205890002093DB002000DD0400B4
:103D98000023F0B507229BB004460E46039349F072
:103DA800E0F878B9214609F07DFE044678B112A9F9
:103DB80009F0F8FE40B99DF86430022B04D1204682
:103DC80009F0C8FA1BB0F0BD204609F0C3FA002775
:103DD800134808F06DFE134B134C1F7006AD08F026
:103DE80031FE30460AA9FFF745FF94E80F0085E841
:103DF8000F002069616904AB03C304AA2946304651
:103E080003AB09F03DFF0028DCD04FF0807301229E
:103E1800009339463B46384600F0C2F8D2E700BF67
:103E28005890002093DB002000DD04000023F0B54B
:103E380093B0039303780446083B012B0E4639D808
:103E48001D4B1D682846FDF7B2FA6278824231D1CF
:103E58002846616849F085F860BB304639F079FC3E
:103E6800054620BB154808F023FE154B154C1D7060
:103E780006AF08F0E7FD30460AA9FFF7FBFE94E815
:103E88000F0087E80F002069616904AB03C304AA27
:103E98003946304603AB09F0F3FE40B14FF080736A
:103EA8000122009329462B46284600F079F8002085
:103EB80013B0F0BD0120FBE754900020589000207B
:103EC80093DB002000DD040003461A890846D20768
:103ED80018D5DA79012A0ED002D9043A012A11D864
:103EE8001A68094B1B78012B06D8084B1B683BB98D
:103EF80007493CF03EBA1A68002006490DF002BF97
:103F08000549F6E7704700BF94DB00205090002079
:103F1800353E0000993D0000113D0000024602496F
:103F2800012009F00DBB00BF413C0000014B1860A7
:103F3800704700BF5090002038B5134B134C1960E0
:103F480023780546C3B9124B1248036008F098FD60
:103F5800012323700024104B2046104922461C7070
:103F68000DF0D0FE2146284608F018FD58B110F192
:103F7800780F08BF204606E008F064FD0028E9D065
:103F880010F1780FE6D038BD5490002093DB002064
:103F9800D13E00005890002094DB0020F53C000042
:103FA8002DE9F04106460D4690461C4694B073B183
:103FB8001846FDF7FCF9202828BF20202F4B024681
:103FC80007462146184648F0DCFF0022C2552C4A15
:103FD80006B116602B4B05B11D601B684FF480714C
:103FE800ADF8283000231268B8F1010FADF824109D
:103FF800ADF82620ADF82A300B933BD11F4909A80C
:10400800FFF79AFF064628BB1F4B204CD8691A8C2D
:1040180093F822302060A3712378A28006AD032B89
:1040280022D8DFE803F0021B1D1F1949284649F072
:104038008EF8059563781E210493A378154A039397
:10404800E3780CA802932379019363790093A37909
:104058003AF000F8304614B0BDE8F0810E49E5E7C3
:104068000E49E3E70E49E1E70A2128460D4A39F0EF
:10407800F1FFDEE76FF01506ECE700BFBCDB0020C0
:1040880000050020FC0400200000002095DB002033
:1040980067660500906605006E6605007566050092
:1040A8007F6605008966050007B520B903B05DF88D
:1040B80004EB00F043B8042300228DF8043001A972
:1040C8000023034842F037FF03B05DF804FB00BF4C
:1040D8008CDC040070B50546144681B9084E30687A
:1040E800854203D010B1114640F093FA70688542BA
:1040F80005D020B12146BDE8704040F08ABA70BDB5
:10410800B090002010B5054C206808B140F07EFA48
:10411800606808B140F07AFA002010BDB090002025
:1041280010B5054C206808B140F06DFA606808B118
:1041380040F069FA002010BDB090002010B5054C81
:10414800206808B140F085FA606808B140F081FA4B
:10415800002010BDB090002073B50026174C05460E
:1041680001A92068019640F040FAB0B180301ED015
:10417800606801A940F039FAB0B9019B9D420FD09F
:10418800216811B16368B3B90121284604EB8101A4
:1041980002B0BDE870400EF0A7BD019B9D42E7D17B
:1041A8006FF00A0002B070BD8030E9D1012600230B
:1041B80044F82630E4E76FF00B00F3E7B0900020F6
:1041C8000448054B8360054B0360054B43600EF0C4
:1041D800F5BD00BF64900020A5D70300DD400000B6
:1041E800A3D7030007B5C0F102008DF80400002230
:1041F8000023084801A942F09EFE38B1002383F34A
:104208001188BFF36F8F0323184602DF03B05DF8F0
:1042180004FB00BF50DC0400014800F065B800BF93
:10422800ED41000009B9014B1A7070475D18002074
:1042380059B91078012802D1044B1B681847022885
:1042480003D1024B08461B68F8E7704734910020F9
:1042580007B539B90123054A694610608DF8003061
:1042680010F0E0FD03B05DF804FB00BF38910020BA
:1042780007B50C4B1B785A1E012A0CD8012B0DD000
:104288000123ADF80030084B6946186810F0CAFDE4
:1042980003B05DF804FB6FF08B00F9E76FF00A00DC
:1042A800F6E700BF5D1800203891002007B50C4BD9
:1042B8001B785A1E012A0CD8022B0DD00223ADF808
:1042C8000030084B6946186810F0ACFD03B05DF883
:1042D80004FB6FF08B00F9E76FF00A00F6E700BF08
:1042E8005D1800203891002008B5084B186010F0C0
:1042F800AFFC50B90648074B4366074BC365074BED
:104308000360BDE8084010F079BD08BD3491002075
:10431800B8900020394200002D42000059420000A8
:104328002DE9F84FDDF828B081468A4614461D4627
:1043380003F11C07D7E8AF3F012B0EDD95F82030BD
:1043480023B16FF00B042046BDE8F88F104640F00B
:1043580027FB012385F82030F3E70023002285F8A6
:1043680020301D4800233BF024FA06460028E8D0F8
:1043780000F10C080D2140463BF076FA52464946BA
:1043880040463BF082FAD7E8EF3F0133C7E8E23F07
:10439800002AF8D1AA89BBF1000F11D13146204675
:1043A80041F0D2FD0028044610DA304605F0C4F882
:1043B800D7E8EF3F013BC7E8E23F002AC3D0F7E761
:1043C8005B463146204641F0C5FDEBE7AB8900244A
:1043D8000133AB81B7E700BF581E002082B02DE93A
:1043E800F04F95B00B911EA981E80C009DF8803024
:1043F80004460793664B09921B78002B00F0C18096
:10440800002800F0C18000261F9B079AB146B3FB25
:10441800F2F8DFF884A108960A9603960B9B9E4251
:1044280009DBB9F1000F40F09E80002015B0BDE80F
:10443800F04F02B0704723780421049363686778CB
:10444800586894F802B039F0BEF90590002800F0D9
:104458008780237A079A934200F2828063680EA9C4
:10446800986800F011F90028E0D14FF448720E9BCB
:10447800B3FBF2F3434540F08780089B626823B1A1
:10448800D3680899DB688B427ED19021049B0BEBA3
:10449800CB053B44AD0001FB035505EB0A0306932E
:1044A800D368DB680893079B012B50D14146039BD7
:1044B80009980093069BFFF733FF002850D19022FC
:1044C800242102FB07F301FB0B330499606802FB0C
:1044D80001333AF803204FF6FF739A420CD1406833
:1044E8000FA940F064FA00283AD1109B0699186881
:1044F8003CF03EF9002833D1242505FB0BF54FF09D
:10450800900B049A0BFB07F70BFB02FBEB195B44C0
:104518003AF803300FA90DA8ADF834303BF053F842
:10452800F0B95D44109B3D4455442B61BDF83E30C5
:1045380068612B83B9F1000F04D1FDF73DF92B69B0
:104548000A900393DDF8149001360C3466E7207A5C
:10455800039B099D0093414608FB0050069BAAE770
:10456800CDF81490EEE7039B00220F930A9B0FA946
:104578001093012307488DF84430002342F0DBFCF8
:1045880053E76FF00C0051E76FF015004EE700BFDE
:10459800E0DB002078DC04003C910020F7B5174AE6
:1045A80001901278C1B2C0F30724C0F3074312B3D5
:1045B80024271C22902617FB0322081906FB002239
:1045C80000200F4D2A44D2E8EFCFC2E8EE0FBEF12B
:1045D800000FF8D171437B4374435A1823440B44AA
:1045E8004FF6FF7122442A4482F82000E952908154
:1045F800108303B0F0BD6FF00C00FAE7E0DB002099
:104608003C910020104B82B01B780190CBB19DF8F3
:1046180005309DF804201C211A4424239DF8060027
:1046280013FB0013902101FB0233084A1344D3E81B
:10463800EF1F0139C3E8E21F002AF8D1002002B0B9
:1046480070476FF00C00FAE7E0DB00203C91002097
:1046580000214FF6FF700A46094B01310429C3E9CE
:104668000122C3E9042283F8202018809A811A8342
:1046780003F12403F1D10122024B1A70704700BFE5
:104688003C910020E0DB002073B50C4669460546E6
:1046980039F0CAF860B9284601A9009E39F0D2F865
:1046A80030B9044B019A93FBF6F35343DB002360C4
:1046B80002B070BD40420F0040B96FF0150070475E
:1046C800002300208B70087048707047044B5A68AC
:1046D8009042F5D0D3F814329842EED10123F0E796
:1046E8003C95002073B50D4601A91446FFF7E4FF79
:1046F800D0B9012D9DF804309DF805209DF80600DD
:1047080014D18CB14FF484614FF404764B4306FB0B
:10471800003301FB0233124A134493F8E0201AB91C
:10472800C3F8E44083F8E05002B070BD022DFBD11D
:10473800002CF9D04FF484614FF404754B4305FB0A
:10474800003301FB0233064A134493F8DC21002AA4
:10475800EAD10122C3F8E04183F8DC21E4E700BF95
:104768003C95002037B5006801A9FFF7A5FFB8B947
:104778004FF484624FF404759DF804309DF80640A8
:10478800534305FB04339DF8051002FB0133054A2A
:1047980013441A7B22B1D3F8F42018731B691360F1
:1047A80003B030BD3C950020F0B589B00F4601A993
:1047B800054616461C46FFF77FFF58BB67BB6CB320
:1047C8004FF484624FF404779DF804309DF8060096
:1047D800534307FB00339DF8051002FB0133104AD1
:1047E8001344C3F80C62207C08238DF815008DF85B
:1047F8000830A42200230B4802A90694039542F02E
:104808009AFB38B1002383F31188BFF36F8F03231A
:10481800184602DF09B0F0BD0446E5E72046E3E7A5
:104828003C95002064DC04002DE9FF47114B044649
:10483800D3F800800D461646B8F1000F17D08F79CF
:10484800006803A9FFF738FF88B9A068D6F80C906C
:104858002D68368A9DF80EA040F039FBFA43CDE961
:1048680000A02B463146484602F00102C04704B07A
:10487800BDE8F087F891002070B50023D0240D4AD8
:1048880004FB03F55559854203D10020DBB20B70B8
:1048980070BD0133042BF3D10023D02505FB03F4AD
:1048A80016590EB91051F0E70133042BF6D16FF009
:1048B8008B00EDE7FC9100207FB500238DF8000008
:1048C80001918DF80C206946A422074842F033FB79
:1048D80038B1002383F31188BFF36F8F0323184681
:1048E80002DF07B05DF804FB64DC0400F7B50F468F
:1048F80001A906461546FFF7DFFEE8B940F2014276
:1049080015429DF804409DF805C09DF8063000D179
:10491800A5B94FF404724FF48461534301FB04F2C8
:10492800012401FB0CF19818144D0B44134408445E
:10493800134A28448460EA5003B0F0BD40F60202EE
:10494800154213D04FF404724FF48465534305FBAA
:1049580004F2022405FB0CF19818084E0B4413448A
:104968000844084A30448460F250E5E73A46314644
:10497800072003B0BDE8F040FFF79EBF3C9500203C
:10498800BD660500C266050038B5114C0546042110
:10499800D4F8EC0038F017FFC0B90421D4F8E801C6
:1049A80038F011FF90B90421D4F8FC0238F00BFF5D
:1049B80060B90421D4F8F80338F005FF30B9296844
:1049C8000122BDE838400420FFF776BF38BD00BF9C
:1049D8003C95002038B5114C05460421D4F8EC006C
:1049E80038F0F1FEC0B90421D4F8E80138F0EBFE44
:1049F80090B90421D4F8FC0238F0E5FE60B904212E
:104A0800D4F8F80338F0DFFE30B929680122BDE890
:104A180038400420FFF750BF38BD00BF3C95002048
:104A280010B50021044686B0102202A8019148F072
:104A3800CFFA200603D50C4901A848F06CFBE10623
:104A480003D50A4901A848F066FBA20603D5084920
:104A580001A848F060FB630703D5064901A848F0A0
:104A68005AFB06B010BD00BFC8660500CD6605003C
:104A7800D2660500D766050030B593B03CF0B7FAAA
:104A88000378044607AD032B20D8DFE803F00219AA
:104A98001B1D1149284648F05AFBA37905956278F1
:104AA8001E210492A2780AA80392E278029222793F
:104AB800019262790092094A39F0CCFA13B030BDFC
:104AC8000749E7E70749E5E70749E3E70A212846F1
:104AD800064A39F0BFFAE0E7676605009066050008
:104AE8006E660500756605007F6605008966050027
:104AF80007B507481BF0B2F8064801A946F0E9FDDA
:104B080010B905481BF030FB03B05DF804FB00BF8B
:104B1800581A0020E01B0020F4050020F8B507789B
:104B28000E46012F1FD143681C882046FFF778FFE7
:104B380021060ED50D4C0E4D0FCD0FC40FCD0FC451
:104B48000FCD0FC495E8030084E8030037700020F8
:104B5800F8BDE20602D5054C064DEDE76307F6D52C
:104B6800024C054DE8E70120F2E700BF3C060020B3
:104B780010DF0400D8DE0400A0DE0400F8B50778D2
:104B88000E46012F1FD143681C882046FFF748FFB7
:104B980021060ED50D4C0E4D0FCD0FC40FCD0FC4F1
:104BA8000FCD0FC495E8030084E803003770002098
:104BB800F8BDE20602D5054C064DEDE76307F6D5CC
:104BC800024C054DE8E70120F2E700BF040600208B
:104BD80010DF0400D8DE0400A0DE04002DE9F04F49
:104BE8008FB0049007A90068FFF766FD02900028BF
:104BF80040F0208104989DF81C409DF81D709DF898
:104C08001E8038F032FE10F0FF03019300F012818D
:104C1800012B40F0C5804FF484624FF4047102FB0D
:104C280004F301FB083302FB07338C4A0199134450
:104C3800D3F8F00038F024FE4FF484614FF4047286
:104C480001FB04F302FB083301FB0733834EE5192C
:104C580001FB05653344D3F8E430AB46D3E913923E
:104C6800D3F854A00023DBF8E4000592039338F04E
:104C7800BAFD059A70B1DBF8E410CB6C994538BFE2
:104C880099464B6D9A4538BF9A460B6D13B19A42B7
:104C980028BF1A46039B0BF5047B002B00F093807A
:104CA800BAF1000F05D0D14503D8524528BF524666
:104CB80091464FF4846B4FF404720BFB04F302FB30
:104CC80008330BFB0733334493F81021002A40F0D4
:104CD800B1800121D3F8EC0038F075FD002800F010
:104CE800888007EB040A0BFB0A6A0AF5F27AB8F126
:104CF800000F4ED06B68002B45D0D5F8EC0000288B
:104D080041D0D5F8F430002B3DD01B684B453AD044
:104D180008AB0C9300234FF0010B0B938DF8283050
:104D28004F4B8DF834B01B78002B4ED0042138F04F
:104D38004AFD002849D00B9B0EAA02EB8302AAF178
:104D4800FC015B4485F80CB0C5F8109042F8181CBB
:104D58000B93434B1B788BB10421D5F8E80138F04D
:104D680032FD58B101232B730B9B0EAA02EB830271
:104D78000133C5F8109042F818AC0B930B9B13B194
:104D88000AA841F055FC029B012B23D0B8F1010F72
:104D980020D0039B05F504750AF5047A0293A9E768
:104DA800019B022B46D14FF484624FF4047102FB3D
:104DB80004F301FB083302FB0733284A0199134423
:104DC800D3F8EC0136E701234DE7D5F8F430C3F802
:104DD8000090BEE74FF484624FF4047102FB04F3C1
:104DE80001FB083302FB07333344D3F8F430C3F82C
:104DF8000090049B019A19680120FFF75DFD4FF4AC
:104E080084624FF4047102FB04F301FB083302FBD4
:104E180007333344D3F8E4207AB94FF484634FF46A
:104E280004725C4302FB084403FB07442644D6F89B
:104E3800E03153B90FB0BDE8F08F0121D3F8EC0091
:104E480038F0C1FC0028E8D1F4E70121D6F8E801E0
:104E58000FB0BDE8F04F38F0B6BC00BF3C9500205D
:104E68005E180020F7B5144640B30DF10701FFF7AF
:104E780003FD18BBA378062B20D1D0239DF807602B
:104E88000F4D03FB06521179042917D8082213FB8A
:104E98000622282313FB012322462B4404F128076A
:104EA8001C4610685168083203C4BA422346F7D139
:104EB800D02303FB06552B7901332B7103B0F0BDCA
:104EC800FC9100202DE9F04F89B00D4607A99246C4
:104ED8000290FFF7F1FB002840F09B800A2D9DF817
:104EE8001C409DF81D709DF81E8040F08F80BAF11F
:104EF800010F79D14FF484624FF4047102FB04F37B
:104F080001FB083302FB07339E4A13441875029BC2
:104F1800002B7ED018460DF11A01FFF7ADFC0028D2
:104F280077D14FF404734FF4846203FB08F30593BD
:104F3800E31953430493059B049A18331344914A85
:104F48008446134499460393D0229DF81A30BAF147
:104F5800010F13FB02FB01935ED17DB9CE460BF125
:104F680008036344884E1E440FCEAEE80F000FCEF0
:104F7800AEE80F0096E803008EE803000CF1280C59
:104F8800BCF1C80F09F12809DED1DFF8FC910BF15B
:104F98000806BAF1010F4E4479D1002D40F0DF80A8
:104FA800D023019A8DF81B5003FB029393F804B0A9
:104FB800039B03F10C0A5D45744A38DB4FF48462A5
:104FC8004FF4047002FB04F300FB083302FB0733C1
:104FD8009DF81B106B4A1344A1B399686C4838F0CC
:104FE8007BFCC822002130E0BAF1020F8FD14FF4C8
:104FF80084624FF4047102FB04F301FB083302FBE3
:105008000733604A134483F8100180E7002D3FF40A
:105018007EAF09B0BDE8F08FBAF1020FAED1002D16
:10502800ACD10BF10803634409F1FC0E9AE7504632
:105038005AF8041C0DF11B033FF00CFA01350AF174
:10504800280AB8E7C822C3F8E410304647F0C0FF82
:10505800D023019A5A43134609EB0201002249F86A
:1050680003204FF484630A714FF404715C4301FB1D
:10507800084403FB0744434B1C4494F81031227541
:10508800002B58D00221029811F0A8FAC1E7BAF112
:10509800020F66D1002D60D1D023019A8DF81B50E4
:1050A80003FB029393F804B0DDE9043213449A46F3
:1050B800384B9A445D45384A15DB4FF484624FF407
:1050C800047002FB04F300FB083302FB07339DF86E
:1050D8001B102C4A134489B19968304838F0FCFBFE
:1050E800C82200210DE050465AF8041C0DF11B039C
:1050F8003FF0B0F901350AF1280ADBE7C822C3F806
:10510800E011304647F064FFD023019A5A43134612
:1051180009EB0201002249F803204FF484630A7165
:105128004FF404715C4301FB084403FB0744154B2F
:10513800234483F810211A4B1B78002B3FF469AFE6
:1051480000220023174807A91AF04EFC00287FF414
:1051580060AF15481BF008F85BE76246C1E7624696
:1051680040E762460021304647F032FFD023019ADB
:105178005A43134609EB0201002249F803200A7139
:10518800D9E700BF3C950020FC910020254B00008A
:105198003C0600205C960020854B00000406002099
:1051A8005E180020E01B0020F40500202DE9F04FD8
:1051B80099B00022002369466A481AF073FC002857
:1051C80040F0C5804FF484634FF404719DF800707B
:1051D8009DF8028003FB07F201FB08229DF801609D
:1051E800614C03FB06222244D2F8E43023B9D2F8FA
:1051F800E021002A00F0AB80DFF8809108AD99F833
:105208000010002945D14FF48462AC464FF4047B6A
:1052180002FB07FA0BFB00A211F0010F0BBFE832EB
:1052280002F5F272DFF858E1DFF858E101F1010107
:105238000EBF1219121901300429CCF804E04CF8F9
:10524800082BE7D14FF484614FF4047001FB07F297
:1052580000FB082201FB06222244D2F8E021002BA1
:1052680078D10593002A7AD1134600221146CDE958
:10527800061304AB02930223019300233B4901A8C0
:1052880004928DF80C3011F029F910B9012389F82E
:1052980000304FF48042002335481AF067FC0023A1
:1052A8004FF4846005938DF810304FF4047306951D
:1052B80003FB08F300FB07F500FB06F2591911443C
:1052C8002144D1F8E41079B11A442A44224452689E
:1052D800E8330892BA1900FB02332344CDE90931B7
:1052E800244B0B93012305934FF4846C4FF4047300
:1052F8000CFB07FE03FB08F30CFB06F203EB0E01A5
:1053080011442144D1F8E051B5B11A443E4403F5A3
:10531800F2730CFB0633059918A8724400EB0110D0
:1053280022441C445268144B40E90F45013140F8AF
:10533800402C40F8343C059104A841F0E7FB1030BC
:1053480005D100220023694606481AF04DFB19B022
:10535800BDE8F08F05950AB90CAA85E70CAB0AAA37
:105368000EA984E7E01B00203C950020F491002062
:10537800581A00203C06002004060020E2DB00202A
:10538800640600202C06002037B50F4D2C7B8CB10D
:1053980000240E4B1B786BB100238DF80640ADF846
:1053A8000430002200230A4801A91AF01DFB09480D
:1053B8001AF0DAFE05F504751CB92B7B0124002BC5
:1053C800E7D103B030BD00BF3C9500205E18002037
:1053D800E01B0020F40500202DE9F3478846154618
:1053E8001E4600286DD032B92BB96FF00507384634
:1053F80002B0BDE8F08701A9FFF75EF9074600286B
:10540800F5D1B8F1010F9DF804409DF805909DF87D
:1054180006A02BD14FF484624FF4047102FB04F30D
:1054280001FB0A3302FB0933DFF89C804344D3F8BD
:10543800F0000028D9D09EB9002DD8D04FF484634D
:105448004FF4047229465C4302FB0A4403FB0944F7
:10545800A044D8F8F000FFF717F90028C7D0C4E730
:10546800314638F0D3F90028E6D0BEE7B8F1020F8C
:10547800BDD14FF484624FF4047102FB04F301FBC5
:105488000A3302FB0933DFF840804344D3F8EC01C8
:105498000028AAD07EB9002DA9D04FF484634FF418
:1054A80004725C4302FB0A4403FB0944A0442946F6
:1054B800D8F8EC01CFE7314638F0A8F90028EAD04F
:1054C80093E76FF0150792E73C950020F7B501A91F
:1054D800FFF7F2F8064680BB4FF404724FF484607D
:1054E8009DF806309DF8051053439DF8045000FBC5
:1054F80001FC00FB05F4294400FB0135104F03EBC8
:105508000C0222441C4464443A4405F118003C440B
:10551800314656603844C822C4F8E46047F058FD64
:1055280005F58A70C82231463844C4F8E06147F06E
:105538004FFD84F8E06084F8DC6103B0F0BD00BF83
:105548003C9500202DE9F3410E4601A90546FFF7D9
:10555800B3F8A8B96FF077000FE001244FF404788E
:10556800002308FB04782846ADF804308DF806407F
:10557800C8F8045011F020F968B102B0BDE8F08114
:10558800104F7C68002CE9D0D7F81432002BE4D0F7
:105598006FF01B00F1E7B20744BF012388F8103110
:1055A800F30741BF4FF4047303FB047701233B75F2
:1055B800032E0CBF01213146284602B0BDE8F04158
:1055C80011F00CB83C95002070B592B0002852D16B
:1055D80002262C4D02ABC5E901032B4C2870D4F8E8
:1055E800E4000DF1070138F0DEF8A0BB9DF80730A4
:1055F8009BB96B68616812AA02EB031242F8401C5F
:1056080004F1E80142F83C1CD4F8E410013342F8F4
:10561800381C1E496B6042F8341CD4F8E0010DF1C7
:10562800070138F0C0F8B0B99DF807309BB96B682E
:10563800616812AA02EB031242F8401C04F5F271E9
:1056480042F83C1CD4F8E011013342F8381C1049E8
:105658006B6042F8341C012E04F5047409D16B68A0
:1056680063B1084841F052FA08B90A4B1E7012B0EB
:1056780070BD0126B3E76FF01500F8E76FF004007E
:10568800F5E700BFE89100203C9500203C0600208B
:10569800040600205E18002030B5024685B00028B8
:1056A80052D101232B4C2C4D014660602070042000
:1056B800C4F808D02373FFF7FFF80421D5F8E400F5
:1056C80038F081F848B163685A1C626004AA02EB9A
:1056D800830305F1E80243F8102C0421D5F8E00112
:1056E80038F071F840B163685A1C626004AA02EB92
:1056F80083031A4A43F8102C0421D5F8F40238F031
:1057080062F840B163685A1C626004AA02EB830322
:10571800134A43F8102C0421D5F8F00338F053F855
:1057280040B163685A1C626004AA02EB83030D4A05
:1057380043F8102C636853B1064840F079FF08B964
:10574800094B187005B030BD6FF01500FAE76FF01F
:105758000400F7E7D89100203C950020209700200E
:1057680034980020309900205E18002070B58CB065
:1057780003AE044686E80E00002844D1234D0421D8
:10578800D5F8EC0038F01FF848B90421D5F8FC0228
:1057980038F019F8B8B96FF08B000CB070BD05F18E
:1057A800E8030793AB680421981E43424341D5F8A8
:1057B800FC02ADF818408DF81A408DF8203038F00A
:1057C80002F8F0B101240C230CAA03FB0423104AAD
:1057D80043F8142C002223F8182C012203F8162C65
:1057E800D5F81822911E4A424A41611C03F8102C30
:1057F800C9B2059B06A8009396E80C00FEF7EEFDDB
:10580800CBE70121F5E76FF01500C6E73C950020CE
:105818003498002038B540BB154D2B7813BB21B305
:10582800144B15481960154940F08BFB134914486F
:1058380040F087FB1149134840F083FB0F49124899
:1058480040F07FFB114810F033FF044640B9104880
:1058580010F0A2FF044618B9FEF7FAFE01232B70D8
:10586800204638BD6FF07704FAE76FF01504F7E7C4
:10587800E1DB0020F891002024960020C4050020D8
:105888002097002034980020309900208C050020B3
:105898007C050020F0B5384D0C462B6887B02BB935
:1058A800204607B0BDE8F04003F046BE51B13AB912
:1058B80082F31188BFF36F8F0323184602DFEFE7E7
:1058C800CB683BB9002383F31188BFF36F8F0323A1
:1058D800184602DFC02AE3D10026002732463B469D
:1058E800286803A942F022FE10F10C0F1DD1234AAB
:1058F80004A9136801331360CDE9006705AA286875
:1059080042F032FE38B1002383F31188BFF36F8F62
:105918000323184602DF0499286842F035FE002266
:105928000023286803A942F001FE38B1002383F35D
:105938001188BFF36F8F0323184602DFC022E16886
:10594800039847F01EFBC022286803A942F0F1FD26
:1059580038B1002383F31188BFF36F8F03231846F0
:1059680002DF204603F0E8FD054B1A780AB9012248
:105978001A7007B0F0BD00BF789900207499002014
:10598800E3DB002020B119B1034B002019607047F8
:105998006FF01500704700BF789900200023024A75
:1059A8001370024A13607047E3DB002078990020E7
:1059B80008B5084845F074FD40B10648064904F0AA
:1059C800ABFDBDE80840002001F092BF6FF0040075
:1059D80008BD00BF50D6040048DF04000022014B78
:1059E8001A707047E4DB0020F0B51F4C85B02378AF
:1059F8000BBB12B3511E11401FD152080B4601F1C7
:105A08000101FAD1DAB2911E022927D80125002610
:105A1800002702938DF80C50144832463B4602A9E1
:105A280019F0E2FF257040F267620023CDE90067B4
:105A38000F481BF0B1FA05B0F0BD002383F31188BD
:105A4800BFF36F8F0322104602DF002282F3118812
:105A5800BFF36F8F0322104602DFD7E7062AD5D09F
:105A6800052AF2D1D2E700BFE4DB0020B01B0020FA
:105A78009018002037B5084D084C4FF0FF326946A2
:105A88004FF0FF3328461AF00DF80022002369462C
:105A9800204641F050FAF0E7B01B00203CDC04003F
:105AA800F7B5134F06460D46386845F0F9FC04462D
:105AB800B8B1CDB138680769836801A95B689847B0
:105AC80028B1012801D100202C7003B0F0BD019B42
:105AD8003A685A40012303FA06F0024208BF00243C
